{"contracts/JobEscrow.sol":{"JobEscrow":{"abi":[{"inputs":[{"internalType":"address","name":"_registry","type":"address"}],"stateMutability":"nonpayable","type":"constructor"},{"anonymous":false,"inputs":[{"indexed":true,"internalType":"bytes32","name":"jobId","type":"bytes32"},{"indexed":true,"internalType":"address","name":"specialist","type":"address"},{"indexed":false,"internalType":"uint256","name":"agreedPrice","type":"uint256"}],"name":"BidAccepted","type":"event"},{"anonymous":false,"inputs":[{"indexed":true,"internalType":"bytes32","name":"jobId","type":"bytes32"},{"indexed":true,"internalType":"address","name":"specialist","type":"address"},{"indexed":false,"internalType":"uint256","name":"bidPrice","type":"uint256"}],"name":"BidReceived","type":"event"},{"anonymous":false,"inputs":[{"indexed":true,"internalType":"bytes32","name":"jobId","type":"bytes32"},{"indexed":true,"internalType":"address","name":"planner","type":"address"}],"name":"DisputeRaised","type":"event"},{"anonymous":false,"inputs":[{"indexed":true,"internalType":"bytes32","name":"jobId","type":"bytes32"},{"indexed":false,"internalType":"bool","name":"specialistFault","type":"bool"}],"name":"DisputeResolved","type":"event"},{"anonymous":false,"inputs":[{"indexed":true,"internalType":"bytes32","name":"jobId","type":"bytes32"}],"name":"JobCancelled","type":"event"},{"anonymous":false,"inputs":[{"indexed":true,"internalType":"bytes32","name":"jobId","type":"bytes32"},{"indexed":false,"internalType":"bytes32","name":"resultHash","type":"bytes32"},{"indexed":false,"internalType":"string","name":"resultUrl","type":"string"},{"indexed":false,"internalType":"uint256","name":"disputeWindowEnd","type":"uint256"}],"name":"JobDelivered","type":"event"},{"anonymous":false,"inputs":[{"indexed":true,"internalType":"bytes32","name":"jobId","type":"bytes32"},{"indexed":true,"internalType":"address","name":"specialist","type":"address"}],"name":"JobFailed","type":"event"},{"anonymous":false,"inputs":[{"indexed":true,"internalType":"bytes32","name":"jobId","type":"bytes32"},{"indexed":true,"internalType":"address","name":"planner","type":"address"},{"indexed":false,"internalType":"string","name":"capability","type":"string"},{"indexed":false,"internalType":"uint256","name":"maxBudget","type":"uint256"},{"indexed":false,"internalType":"bytes32","name":"parentJobId","type":"bytes32"}],"name":"JobPosted","type":"event"},{"anonymous":false,"inputs":[{"indexed":true,"internalType":"bytes32","name":"jobId","type":"bytes32"},{"indexed":true,"internalType":"address","name":"specialist","type":"address"},{"indexed":false,"internalType":"uint256","name":"amount","type":"uint256"}],"name":"PayoutReleased","type":"event"},{"inputs":[],"name":"DISPUTE_WINDOW","outputs":[{"internalType":"uint256","name":"","type":"uint256"}],"stateMutability":"view","type":"function"},{"inputs":[{"internalType":"bytes32","name":"jobId","type":"bytes32"},{"internalType":"address","name":"specialist","type":"address"},{"internalType":"uint256","name":"agreedPrice","type":"uint256"}],"name":"acceptBid","outputs":[],"stateMutability":"nonpayable","type":"function"},{"inputs":[{"internalType":"bytes32","name":"jobId","type":"bytes32"},{"internalType":"uint256","name":"bidPrice","type":"uint256"}],"name":"bid","outputs":[],"stateMutability":"nonpayable","type":"function"},{"inputs":[{"internalType":"bytes32","name":"jobId","type":"bytes32"}],"name":"cancelJob","outputs":[],"stateMutability":"nonpayable","type":"function"},{"inputs":[{"internalType":"bytes32","name":"","type":"bytes32"}],"name":"escrow","outputs":[{"internalType":"uint256","name":"","type":"uint256"}],"stateMutability":"view","type":"function"},{"inputs":[{"internalType":"bytes32","name":"jobId","type":"bytes32"}],"name":"getBids","outputs":[{"components":[{"internalType":"bytes32","name":"jobId","type":"bytes32"},{"internalType":"address","name":"specialist","type":"address"},{"internalType":"uint256","name":"bidPrice","type":"uint256"},{"internalType":"uint256","name":"timestamp","type":"uint256"}],"internalType":"struct JobEscrow.Bid[]","name":"","type":"tuple[]"}],"stateMutability":"view","type":"function"},{"inputs":[{"internalType":"bytes32","name":"jobId","type":"bytes32"}],"name":"getJob","outputs":[{"components":[{"internalType":"bytes32","name":"id","type":"bytes32"},{"internalType":"bytes32","name":"parentJobId","type":"bytes32"},{"internalType":"address","name":"planner","type":"address"},{"internalType":"string","name":"description","type":"string"},{"internalType":"string","name":"requiredCapability","type":"string"},{"internalType":"uint256","name":"maxBudget","type":"uint256"},{"internalType":"uint256","name":"agreedPrice","type":"uint256"},{"internalType":"uint256","name":"deadline","type":"uint256"},{"internalType":"enum JobEscrow.JobStatus","name":"status","type":"uint8"},{"internalType":"enum JobEscrow.DisputeStatus","name":"disputeStatus","type":"uint8"},{"internalType":"address","name":"specialist","type":"address"},{"internalType":"bytes32","name":"resultHash","type":"bytes32"},{"internalType":"string","name":"resultUrl","type":"string"},{"internalType":"uint256","name":"createdAt","type":"uint256"},{"internalType":"uint256","name":"settledAt","type":"uint256"},{"internalType":"uint256","name":"disputeWindowEnd","type":"uint256"},{"internalType":"bytes32[]","name":"childJobIds","type":"bytes32[]"}],"internalType":"struct JobEscrow.Job","name":"","type":"tuple"}],"stateMutability":"view","type":"function"},{"inputs":[{"internalType":"bytes32","name":"jobId","type":"bytes32"}],"name":"markFailed","outputs":[],"stateMutability":"nonpayable","type":"function"},{"inputs":[],"name":"owner","outputs":[{"internalType":"address","name":"","type":"address"}],"stateMutability":"view","type":"function"},{"inputs":[{"internalType":"string","name":"description","type":"string"},{"internalType":"string","name":"capability","type":"string"},{"internalType":"uint256","name":"deadline","type":"uint256"},{"internalType":"bytes32","name":"parentJobId","type":"bytes32"}],"name":"postJob","outputs":[{"internalType":"bytes32","name":"","type":"bytes32"}],"stateMutability":"payable","type":"function"},{"inputs":[{"internalType":"bytes32","name":"jobId","type":"bytes32"}],"name":"raiseDispute","outputs":[],"stateMutability":"nonpayable","type":"function"},{"inputs":[],"name":"registry","outputs":[{"internalType":"contract ICapabilityRegistry","name":"","type":"address"}],"stateMutability":"view","type":"function"},{"inputs":[{"internalType":"bytes32","name":"jobId","type":"bytes32"}],"name":"releasePayout","outputs":[],"stateMutability":"nonpayable","type":"function"},{"inputs":[{"internalType":"bytes32","name":"jobId","type":"bytes32"},{"internalType":"bool","name":"specialistFault","type":"bool"}],"name":"resolveDispute","outputs":[],"stateMutability":"nonpayable","type":"function"},{"inputs":[{"internalType":"bytes32","name":"jobId","type":"bytes32"},{"internalType":"bytes32","name":"resultHash","type":"bytes32"},{"internalType":"string","name":"resultUrl","type":"string"}],"name":"submitResult","outputs":[],"stateMutability":"nonpayable","type":"function"}],"evm":{"bytecode":{"linkReferences":{},"object":"6080346100ca57601f61203b38819003918201601f19168301916001600160401b038311848410176100cf578084926020946040528339810103126100ca57516001600160a01b038116908190036100ca5780156100855760018060a01b03193381600154161760015560025416176002556001600055604051611f5590816100e68239f35b60405162461bcd60e51b815260206004820152601860248201527f4a6f62457363726f773a207a65726f20726567697374727900000000000000006044820152606490fd5b600080fd5b634e487b7160e01b600052604160045260246000fdfe608080604052600436101561001357600080fd5b600090813560e01c9081632017d40014611455575080633182c533146111d65780633d8ec98114610fd957806343a0e3e614610d7b5780635fae145014610c7a5780636652988814610a965780637b10399914610a6d5780638da5cb5b14610a44578063925ed1a1146108a55780639d4f988b1461077b578063a7e7503214610751578063cd772f5c1461056a578063e14f5b7d1461043b578063f585dc571461041f5763f729cf0d146100c657600080fd5b3461041c57602036600319011261041c5760606102006040516100e881611a53565b83815283602082015283604082015282808201528260808201528360a08201528360c08201528360e08201528361010082015283610120820152836101408201528361016082015282610180820152836101a0820152836101c0820152836101e082015201526004358152600460205260408120906040519161016a83611a53565b805483526001810154602084015260028101546001600160a01b0316604084015261019760038201611cac565b60608401526101a860048201611cac565b6080840152600581015460a0840152600681015460c0840152600781015460e0840152600881015460ff811660078110156103db57610100850152600460ff8260081c16101561040857600881901c60ff1661012085015260101c6001600160a01b03166101408401526009810154610160840152610229600a8201611cac565b610180840152600b8101546101a0840152600c8101546101c0840152600d8101546101e08401526040518082600e602081849601549485815201910185526020852092855b8181106103ef57505061028392500382611a70565b6102008301526040519160208352805160208401526020810151604084015260018060a01b0360408201511660608401526102e86102d2606083015161022060808701526102408601906119a8565b6080830151858203601f190160a08701526119a8565b60a082015160c085015260c082015160e085015260e082015161010085015261010082015160078110156103db5761012085015261012082015160048110156103db576103738594926102009261014087015260018060a01b0361014086015116610160870152610160850151610180870152610180850151601f19878303016101a08801526119a8565b926101a08101516101c08601526101c08101516101e08601526101e081015182860152015191601f1984820301610220850152602080845192838152019301915b8181106103c2575050500390f35b82518452859450602093840193909201916001016103b4565b634e487b7160e01b84526021600452602484fd5b845483526001948501948694506020909301920161026e565b634e487b7160e01b83526021600452602483fd5b80fd5b503461041c578060031936011261041c576020604051601e8152f35b503461041c57602036600319011261041c5760043580825260046020526040822061047360018060a01b036002830154163314611c1b565b600881019081549060ff821660078110156105565760020361051157600d015442116104cd5761ffff191661010517905533907fa71ec46ab116e07f9703467558af33f82718419b32e2acafa86c65587891e3cc8380a380f35b606460405162461bcd60e51b815260206004820152602060248201527f4a6f62457363726f773a20646973707574652077696e646f7720636c6f7365646044820152fd5b60405162461bcd60e51b815260206004820152601860248201527f4a6f62457363726f773a206e6f742064656c69766572656400000000000000006044820152606490fd5b634e487b7160e01b86526021600452602486fd5b503461041c57604036600319011261041c57600435602490813591818452602090600482526040852060ff600882015416600781101561073e576105ae9015611b1b565b600581015485116106fa57806105cb600760029301544210611b67565b01546001600160a01b0390811633146106b657838652600583526040862090604051906105f782611a37565b8582528482019033825260408301928884526060810194428652805490600160401b8210156106a3579061063091600182018155611bb3565b969096610691575051855590516001850180546001600160a01b03191691909216179055516002830155516003919091015560405192835233927f104ad6d95c38f90069821e1c161efc87a7d511235fbb3e1a9b06c38d87a795789190a380f35b634e487b7160e01b8b5260048b90528afd5b634e487b7160e01b8c526041600452878cfd5b60405162461bcd60e51b815260048101849052601d818401527f4a6f62457363726f773a20706c616e6e65722063616e6e6f74206269640000006044820152606490fd5b60405162461bcd60e51b815260048101849052601d818401527f4a6f62457363726f773a206269642065786365656473206275646765740000006044820152606490fd5b634e487b7160e01b875260216004528287fd5b503461041c57602036600319011261041c5760406020916004358152600683522054604051908152f35b503461041c576020908160031936011261041c57600435815260058252604081209182549067ffffffffffffffff821161089157919290604051906107c5848260051b0183611a70565b8082528382018093865284862086915b83831061084057505050506040519280840191818552518092526040840192945b8281106108035784840385f35b855180518552808301516001600160a01b0316858401526040808201519086015260609081015190850152948101946080909301926001016107f6565b60048760019260409a9997989a5161085781611a37565b85548152848060a01b03858701541683820152600286015460408201526003860154606082015281520192019201919096949395966107d5565b634e487b7160e01b83526041600452602483fd5b503461041c57602036600319011261041c576004356108c8600283541415611bcf565b600282558082526004602052604082206008810160ff8154166007811015610a305760016108f69114611c60565b60078201544211156109eb57828452600660205260408420918483549355600660ff19835416179182815542600c8301558560018060a01b03938460025416600685015491813b156109e7576064879185809460405196879586946303fcdc2960e61b865260101c16600485015282602485015260448401525af180156109dc576109c0575b5050906109b994836002935460101c16907f517fc621fe1d6b3e6ee1621b5a5285ad1b0b03e5150c41a726a0356244e9c8fc8880a3015416611e82565b6001815580f35b6109cc90939293611a0d565b6109d85790853861097c565b8580fd5b6040513d84823e3d90fd5b8380fd5b60405162461bcd60e51b815260206004820152601e60248201527f4a6f62457363726f773a20646561646c696e65206e6f742070617373656400006044820152606490fd5b634e487b7160e01b85526021600452602485fd5b503461041c578060031936011261041c576001546040516001600160a01b039091168152602090f35b503461041c578060031936011261041c576002546040516001600160a01b039091168152602090f35b503461041c57602080600319360112610c765760043590610abb600284541415611bcf565b60028355818352600481526040832090600882019260ff845416600781101561055657600203610c2757600d830154421115610bd6578085526006825260408520928584549455600360ff19865416179081865542600c8201558660018060a01b03928360025416600684015491813b156109e7576064869185809460405196879586946303fcdc2960e61b865260101c1660048501526001602485015260448401525af180156109dc57610bb6575b5050906109b995610ba260017f23a8da427309f19b9170cbca53056c460894050d791c837ec738891ed8e7eef59695940154611d52565b5460101c16928392604051868152a3611e82565b610bc4909594939295611a0d565b610bd2579091928638610b6b565b8680fd5b60405162461bcd60e51b8152600481018390526024808201527f4a6f62457363726f773a20646973707574652077696e646f77207374696c6c2060448201526337b832b760e11b6064820152608490fd5b60405162461bcd60e51b815260048101839052602160248201527f4a6f62457363726f773a206e6f7420696e2064656c69766572656420737461746044820152606560f81b6064820152608490fd5b5080fd5b503461041c57602036600319011261041c57600435610c9d600283541415611bcf565b600282558082526004602052604082206002810190600860018060a01b0391610cca838554163314611c1b565b019160ff835416600781101561055657610d2a57836109b9948652600660205260408620938685549555600460ff198254161790557f9ccc861eaec2aceb9488758b457d6274b344707bc4e961cbaefacd208025410f8680a25416611e82565b60405162461bcd60e51b8152602060048201526024808201527f4a6f62457363726f773a2063616e206f6e6c792063616e63656c206f70656e206044820152636a6f627360e01b6064820152608490fd5b503461041c57604036600319011261041c57600435602480359182151591828403610eb357600290610db08287541415611bcf565b8186556001546001600160a01b03939084163303610f9e5780875260046020526040872095600887019160ff8354166007811015610f8b57600503610f475780895260066020527f6309d9f2499864a4f9d4ddb22f2b493afde8c215a1cd2e178647596cffe2efa4602060408b20988b8a549a5542600c8c0155604051908152a215610eb75790869161020661ffff198254161780915584845416600688015490803b15610eb35784928360649289948260405198899788966303fcdc2960e61b885260101c16600487015285015260448401525af180156109dc57610e9f575b50506109b993015416611e82565b610ea890611a0d565b610eb3578438610e91565b8480fd5b9594909161030361ffff19885416178755600684808354169284015416920154813b15610bd2578693919284809460649360405197889687956303fcdc2960e61b8752600487015285015260448401525af18015610f3c57610f29575b50610f2492935460101c16611e82565b6109b9565b92610f36610f2494611a0d565b92610f14565b6040513d86823e3d90fd5b60405162461bcd60e51b8152602060048201526017818601527f4a6f62457363726f773a206e6f742064697370757465640000000000000000006044820152606490fd5b634e487b7160e01b8a526021600452848afd5b60405162461bcd60e51b815260206004820152601481840152732537b122b9b1b937bb9d103737ba1037bbb732b960611b6044820152606490fd5b503461041c57606036600319011261041c576001600160a01b036024358181169160043591838103610eb357604435906002946110198688541415611bcf565b858755848752600460205260408720948686019661103b868954163314611c1b565b600887019081549060ff821660078110156111c25761105a9015611b1b565b838b52600560205260408b2080548c929091835b83811061116f575b505050501561112a5760058801549486860398868a1161111657600690810188905561ff01600160b01b031990921660109190911b62010000600160b01b03161760011790915581895260209081526040808a20869055518581527f11584506704f1759083d660085355522a050c85b08441c428accd0ce05f969289190a303611103575b836001815580f35b61110e925416611e82565b3880806110fb565b634e487b7160e01b8c52601160045260248cfd5b60405162461bcd60e51b815260206004820152601860248201527f4a6f62457363726f773a20626964206e6f7420666f756e6400000000000000006044820152606490fd5b6111798183611bb3565b50898d6001809301541614806111ac575b61119d5750611198906119e8565b61106e565b94505050505038808080611076565b508b846111b98486611bb3565b5001541461118a565b634e487b7160e01b8c52602160045260248cfd5b503461041c57606036600319011261041c5767ffffffffffffffff906004356024356044358481116109e757611210903690600401611975565b919094838552602092600484526040862091600883019081543360018060a01b038260101c16036114105760ff1660078110156113fc576112546001809214611c60565b6112646007860154421115611b67565b856009860155600a85019184116113e85761127f8254611a92565b601f81116113a2575b508389601f8211600114611337578a92908261132c575b501b906000198560031b1c19161790555b600260ff19825416179055601e420191824211611318579661130c9183600d7ff2caac1abcf68f69b9520ae84fb94b6f8b53ec64129e95cd8dd6b0bbdf665f7498999a0155606060405196879687528601526060850191611afa565b9060408301520390a280f35b634e487b7160e01b87526011600452602487fd5b8c013592503861129f565b8a91601f1981168584528d8b8681872096925b848410611382575050505010611368575b505083811b0190556112b0565b8b0135600019600387901b60f8161c19169055388061135b565b82949550958097919293960135815501940192019087918b8f879061134a565b828a52878a20601f860160051c8101918987106113de575b601f0160051c019082905b8281106113d3575050611288565b8b81550182906113c5565b90915081906113ba565b634e487b7160e01b89526041600452602489fd5b634e487b7160e01b89526021600452602489fd5b60405162461bcd60e51b815260048101889052601960248201527f4a6f62457363726f773a206e6f74207370656369616c697374000000000000006044820152606490fd5b82608036600319011261041c5760043567ffffffffffffffff8111610c7657611482903690600401611975565b9160243567ffffffffffffffff8111610c76576114a3903690600401611975565b929094341561193357504260443511156118ee576003546114c3816119e8565b60035560405160208101913360601b83524260348301526054820152605481526114ec81611a37565b5190209384835260046020526040832091858355606435600184015560028301336bffffffffffffffffffffffff60a01b82541617905567ffffffffffffffff82116118da5781906115416003850154611a92565b601f811161188a575b508490601f831160011461181e578592611813575b50508160011b916000199060031b1c19161760038201555b67ffffffffffffffff83116117ff576115936004820154611a92565b601f81116117bb575b508282601f8211600114611751578391611746575b508360011b906000198560031b1c19161760048201555b34600582015560443560078201556008810161ffff198154169055600b429101558281526006602052346040822055606435611656575b50817fe532336f5a290da73a2e3b063f3b9e63d17ea8e7fe2ffe8600ae3bcc8049903b61163a60209560405194606086526060860191611afa565b92348682015260643560408201528033940390a3604051908152f35b6064358152600460205260408120600201546001600160a01b0316156117015760643581526004602052600e6040822001805491600160401b8310156116ed575061163a6020956116cf847fe532336f5a290da73a2e3b063f3b9e63d17ea8e7fe2ffe8600ae3bcc8049903b9460018997018155611acc565b81549060031b9086821b91600019901b1916179055955050506115ff565b634e487b7160e01b81526041600452602490fd5b60405162461bcd60e51b815260206004820152601b60248201527f4a6f62457363726f773a20706172656e74206e6f7420666f756e6400000000006044820152606490fd5b9050850135866115b1565b600483018452602084209150835b601f19861681106117a3575084601f19811610611789575b5050600183811b0160048201556115c8565b860135600019600386901b60f8161c191690558580611777565b9091602060018192858b01358155019301910161175f565b60048201835260208320601f850160051c8101602086106117f8575b601f830160051c820181106117ed57505061159c565b8481556001016117d7565b50806117d7565b634e487b7160e01b82526041600452602482fd5b01359050878061155f565b60038501865260208620925090601f198416865b8181106118725750908460019594939210611858575b505050811b016003820155611577565b0135600019600384901b60f8161c19169055878080611848565b91936020600181928787013581550195019201611832565b90915060038401855260208520601f840160051c8101602085106118d3575b90849392915b601f830160051c820181106118c557505061154a565b8781558594506001016118af565b50806118a9565b634e487b7160e01b84526041600452602484fd5b60405162461bcd60e51b815260206004820152601b60248201527f4a6f62457363726f773a20646561646c696e6520696e207061737400000000006044820152606490fd5b62461bcd60e51b815260206004820152601a60248201527f4a6f62457363726f773a206275646765742072657175697265640000000000006044820152606490fd5b9181601f840112156119a35782359167ffffffffffffffff83116119a357602083818601950101116119a357565b600080fd5b919082519283825260005b8481106119d4575050826000602080949584010152601f8019910116010190565b6020818301810151848301820152016119b3565b60001981146119f75760010190565b634e487b7160e01b600052601160045260246000fd5b67ffffffffffffffff8111611a2157604052565b634e487b7160e01b600052604160045260246000fd5b6080810190811067ffffffffffffffff821117611a2157604052565b610220810190811067ffffffffffffffff821117611a2157604052565b90601f8019910116810190811067ffffffffffffffff821117611a2157604052565b90600182811c92168015611ac2575b6020831014611aac57565b634e487b7160e01b600052602260045260246000fd5b91607f1691611aa1565b8054821015611ae45760005260206000200190600090565b634e487b7160e01b600052603260045260246000fd5b908060209392818452848401376000828201840152601f01601f1916010190565b15611b2257565b60405162461bcd60e51b815260206004820152601760248201527f4a6f62457363726f773a206a6f62206e6f74206f70656e0000000000000000006044820152606490fd5b15611b6e57565b60405162461bcd60e51b815260206004820152601860248201527f4a6f62457363726f773a207061737420646561646c696e6500000000000000006044820152606490fd5b8054821015611ae45760005260206000209060021b0190600090565b15611bd657565b60405162461bcd60e51b815260206004820152601f60248201527f5265656e7472616e637947756172643a207265656e7472616e742063616c6c006044820152606490fd5b15611c2257565b60405162461bcd60e51b81526020600482015260166024820152752537b122b9b1b937bb9d103737ba10383630b73732b960511b6044820152606490fd5b15611c6757565b60405162461bcd60e51b815260206004820152601b60248201527f4a6f62457363726f773a206a6f62206e6f742061737369676e656400000000006044820152606490fd5b9060405191826000825492611cc084611a92565b908184526001948581169081600014611d2f5750600114611cec575b5050611cea92500383611a70565b565b9093915060005260209081600020936000915b818310611d17575050611cea93508201013880611cdc565b85548884018501529485019487945091830191611cff565b915050611cea94506020925060ff191682840152151560051b8201013880611cdc565b8015611e7f5760009081526004602090808252604092838120926008908185019384549360ff918286169260079384811015611e6c57600103611e60578295600e8a019a8b54975b888110611dbf5750505050505050505060039192935060ff1916179055600c42910155565b611dc9818e611acc565b9054600391821b1c87528589528484848920015416888110159182611e4d578114159182611e40575b82611e1b575b5050611e0c57611e07906119e8565b611d9a565b50505050505050505050505050565b909150611e2d57600614153880611df8565b634e487b7160e01b875260218652602487fd5b5086811415915087611df2565b634e487b7160e01b895260218852602489fd5b50505050505050505050565b634e487b7160e01b845260218352602484fd5b50565b600080808094819460018060a01b03165af1903d15611f19573d9067ffffffffffffffff82116116ed5760405191611ec4601f8201601f191660200184611a70565b825260203d92013e5b15611ed457565b60405162461bcd60e51b815260206004820152601e60248201527f4a6f62457363726f773a20455448207472616e73666572206661696c656400006044820152606490fd5b50611ecd56fea26469706673582212202940765c67d30b2e9baae8ddf44f499070d1d3c336f012096ee2c3f72a7f73d564736f6c63430008140033","opcodes":"PUSH1 0x80 CALLVALUE PUSH2 0xCA JUMPI PUSH1 0x1F PUSH2 0x203B CODESIZE DUP2 SWAP1 SUB SWAP2 DUP3 ADD PUSH1 0x1F NOT AND DUP4 ADD SWAP2 PUSH1 0x1 PUSH1 0x1 PUSH1 0x40 SHL SUB DUP4 GT DUP5 DUP5 LT OR PUSH2 0xCF JUMPI DUP1 DUP5 SWAP3 PUSH1 0x20 SWAP5 PUSH1 0x40 MSTORE DUP4 CODECOPY DUP2 ADD SUB SLT PUSH2 0xCA JUMPI MLOAD PUSH1 0x1 PUSH1 0x1 PUSH1 0xA0 SHL SUB DUP2 AND SWAP1 DUP2 SWAP1 SUB PUSH2 0xCA JUMPI DUP1 ISZERO PUSH2 0x85 JUMPI PUSH1 0x1 DUP1 PUSH1 0xA0 SHL SUB NOT CALLER DUP2 PUSH1 0x1 SLOAD AND OR PUSH1 0x1 SSTORE PUSH1 0x2 SLOAD AND OR PUSH1 0x2 SSTORE PUSH1 0x1 PUSH1 0x0 SSTORE PUSH1 0x40 MLOAD PUSH2 0x1F55 SWAP1 DUP2 PUSH2 0xE6 DUP3 CODECOPY RETURN JUMPDEST PUSH1 0x40 MLOAD PUSH3 0x461BCD PUSH1 0xE5 SHL DUP2 MSTORE PUSH1 0x20 PUSH1 0x4 DUP3 ADD MSTORE PUSH1 0x18 PUSH1 0x24 DUP3 ADD MSTORE PUSH32 0x4A6F62457363726F773A207A65726F2072656769737472790000000000000000 PUSH1 0x44 DUP3 ADD MSTORE PUSH1 0x64 SWAP1 REVERT JUMPDEST PUSH1 0x0 DUP1 REVERT JUMPDEST PUSH4 0x4E487B71 PUSH1 0xE0 SHL PUSH1 0x0 MSTORE PUSH1 0x41 PUSH1 0x4 MSTORE PUSH1 0x24 PUSH1 0x0 REVERT INVALID PUSH1 0x80 DUP1 PUSH1 0x40 MSTORE PUSH1 0x4 CALLDATASIZE LT ISZERO PUSH2 0x13 JUMPI PUSH1 0x0 DUP1 REVERT JUMPDEST PUSH1 0x0 SWAP1 DUP2 CALLDATALOAD PUSH1 0xE0 SHR SWAP1 DUP2 PUSH4 0x2017D400 EQ PUSH2 0x1455 JUMPI POP DUP1 PUSH4 0x3182C533 EQ PUSH2 0x11D6 JUMPI DUP1 PUSH4 0x3D8EC981 EQ PUSH2 0xFD9 JUMPI DUP1 PUSH4 0x43A0E3E6 EQ PUSH2 0xD7B JUMPI DUP1 PUSH4 0x5FAE1450 EQ PUSH2 0xC7A JUMPI DUP1 PUSH4 0x66529888 EQ PUSH2 0xA96 JUMPI DUP1 PUSH4 0x7B103999 EQ PUSH2 0xA6D JUMPI DUP1 PUSH4 0x8DA5CB5B EQ PUSH2 0xA44 JUMPI DUP1 PUSH4 0x925ED1A1 EQ PUSH2 0x8A5 JUMPI DUP1 PUSH4 0x9D4F988B EQ PUSH2 0x77B JUMPI DUP1 PUSH4 0xA7E75032 EQ PUSH2 0x751 JUMPI DUP1 PUSH4 0xCD772F5C EQ PUSH2 0x56A JUMPI DUP1 PUSH4 0xE14F5B7D EQ PUSH2 0x43B JUMPI DUP1 PUSH4 0xF585DC57 EQ PUSH2 0x41F JUMPI PUSH4 0xF729CF0D EQ PUSH2 0xC6 JUMPI PUSH1 0x0 DUP1 REVERT JUMPDEST CALLVALUE PUSH2 0x41C JUMPI PUSH1 0x20 CALLDATASIZE PUSH1 0x3 NOT ADD SLT PUSH2 0x41C JUMPI PUSH1 0x60 PUSH2 0x200 PUSH1 0x40 MLOAD PUSH2 0xE8 DUP2 PUSH2 0x1A53 JUMP JUMPDEST DUP4 DUP2 MSTORE DUP4 PUSH1 0x20 DUP3 ADD MSTORE DUP4 PUSH1 0x40 DUP3 ADD MSTORE DUP3 DUP1 DUP3 ADD MSTORE DUP3 PUSH1 0x80 DUP3 ADD MSTORE DUP4 PUSH1 0xA0 DUP3 ADD MSTORE DUP4 PUSH1 0xC0 DUP3 ADD MSTORE DUP4 PUSH1 0xE0 DUP3 ADD MSTORE DUP4 PUSH2 0x100 DUP3 ADD MSTORE DUP4 PUSH2 0x120 DUP3 ADD MSTORE DUP4 PUSH2 0x140 DUP3 ADD MSTORE DUP4 PUSH2 0x160 DUP3 ADD MSTORE DUP3 PUSH2 0x180 DUP3 ADD MSTORE DUP4 PUSH2 0x1A0 DUP3 ADD MSTORE DUP4 PUSH2 0x1C0 DUP3 ADD MSTORE DUP4 PUSH2 0x1E0 DUP3 ADD MSTORE ADD MSTORE PUSH1 0x4 CALLDATALOAD DUP2 MSTORE PUSH1 0x4 PUSH1 0x20 MSTORE PUSH1 0x40 DUP2 KECCAK256 SWAP1 PUSH1 0x40 MLOAD SWAP2 PUSH2 0x16A DUP4 PUSH2 0x1A53 JUMP JUMPDEST DUP1 SLOAD DUP4 MSTORE PUSH1 0x1 DUP2 ADD SLOAD PUSH1 0x20 DUP5 ADD MSTORE PUSH1 0x2 DUP2 ADD SLOAD PUSH1 0x1 PUSH1 0x1 PUSH1 0xA0 SHL SUB AND PUSH1 0x40 DUP5 ADD MSTORE PUSH2 0x197 PUSH1 0x3 DUP3 ADD PUSH2 0x1CAC JUMP JUMPDEST PUSH1 0x60 DUP5 ADD MSTORE PUSH2 0x1A8 PUSH1 0x4 DUP3 ADD PUSH2 0x1CAC JUMP JUMPDEST PUSH1 0x80 DUP5 ADD MSTORE PUSH1 0x5 DUP2 ADD SLOAD PUSH1 0xA0 DUP5 ADD MSTORE PUSH1 0x6 DUP2 ADD SLOAD PUSH1 0xC0 DUP5 ADD MSTORE PUSH1 0x7 DUP2 ADD SLOAD PUSH1 0xE0 DUP5 ADD MSTORE PUSH1 0x8 DUP2 ADD SLOAD PUSH1 0xFF DUP2 AND PUSH1 0x7 DUP2 LT ISZERO PUSH2 0x3DB JUMPI PUSH2 0x100 DUP6 ADD MSTORE PUSH1 0x4 PUSH1 0xFF DUP3 PUSH1 0x8 SHR AND LT ISZERO PUSH2 0x408 JUMPI PUSH1 0x8 DUP2 SWAP1 SHR PUSH1 0xFF AND PUSH2 0x120 DUP6 ADD MSTORE PUSH1 0x10 SHR PUSH1 0x1 PUSH1 0x1 PUSH1 0xA0 SHL SUB AND PUSH2 0x140 DUP5 ADD MSTORE PUSH1 0x9 DUP2 ADD SLOAD PUSH2 0x160 DUP5 ADD MSTORE PUSH2 0x229 PUSH1 0xA DUP3 ADD PUSH2 0x1CAC JUMP JUMPDEST PUSH2 0x180 DUP5 ADD MSTORE PUSH1 0xB DUP2 ADD SLOAD PUSH2 0x1A0 DUP5 ADD MSTORE PUSH1 0xC DUP2 ADD SLOAD PUSH2 0x1C0 DUP5 ADD MSTORE PUSH1 0xD DUP2 ADD SLOAD PUSH2 0x1E0 DUP5 ADD MSTORE PUSH1 0x40 MLOAD DUP1 DUP3 PUSH1 0xE PUSH1 0x20 DUP2 DUP5 SWAP7 ADD SLOAD SWAP5 DUP6 DUP2 MSTORE ADD SWAP2 ADD DUP6 MSTORE PUSH1 0x20 DUP6 KECCAK256 SWAP3 DUP6 JUMPDEST DUP2 DUP2 LT PUSH2 0x3EF JUMPI POP POP PUSH2 0x283 SWAP3 POP SUB DUP3 PUSH2 0x1A70 JUMP JUMPDEST PUSH2 0x200 DUP4 ADD MSTORE PUSH1 0x40 MLOAD SWAP2 PUSH1 0x20 DUP4 MSTORE DUP1 MLOAD PUSH1 0x20 DUP5 ADD MSTORE PUSH1 0x20 DUP2 ADD MLOAD PUSH1 0x40 DUP5 ADD MSTORE PUSH1 0x1 DUP1 PUSH1 0xA0 SHL SUB PUSH1 0x40 DUP3 ADD MLOAD AND PUSH1 0x60 DUP5 ADD MSTORE PUSH2 0x2E8 PUSH2 0x2D2 PUSH1 0x60 DUP4 ADD MLOAD PUSH2 0x220 PUSH1 0x80 DUP8 ADD MSTORE PUSH2 0x240 DUP7 ADD SWAP1 PUSH2 0x19A8 JUMP JUMPDEST PUSH1 0x80 DUP4 ADD MLOAD DUP6 DUP3 SUB PUSH1 0x1F NOT ADD PUSH1 0xA0 DUP8 ADD MSTORE PUSH2 0x19A8 JUMP JUMPDEST PUSH1 0xA0 DUP3 ADD MLOAD PUSH1 0xC0 DUP6 ADD MSTORE PUSH1 0xC0 DUP3 ADD MLOAD PUSH1 0xE0 DUP6 ADD MSTORE PUSH1 0xE0 DUP3 ADD MLOAD PUSH2 0x100 DUP6 ADD MSTORE PUSH2 0x100 DUP3 ADD MLOAD PUSH1 0x7 DUP2 LT ISZERO PUSH2 0x3DB JUMPI PUSH2 0x120 DUP6 ADD MSTORE PUSH2 0x120 DUP3 ADD MLOAD PUSH1 0x4 DUP2 LT ISZERO PUSH2 0x3DB JUMPI PUSH2 0x373 DUP6 SWAP5 SWAP3 PUSH2 0x200 SWAP3 PUSH2 0x140 DUP8 ADD MSTORE PUSH1 0x1 DUP1 PUSH1 0xA0 SHL SUB PUSH2 0x140 DUP7 ADD MLOAD AND PUSH2 0x160 DUP8 ADD MSTORE PUSH2 0x160 DUP6 ADD MLOAD PUSH2 0x180 DUP8 ADD MSTORE PUSH2 0x180 DUP6 ADD MLOAD PUSH1 0x1F NOT DUP8 DUP4 SUB ADD PUSH2 0x1A0 DUP9 ADD MSTORE PUSH2 0x19A8 JUMP JUMPDEST SWAP3 PUSH2 0x1A0 DUP2 ADD MLOAD PUSH2 0x1C0 DUP7 ADD MSTORE PUSH2 0x1C0 DUP2 ADD MLOAD PUSH2 0x1E0 DUP7 ADD MSTORE PUSH2 0x1E0 DUP2 ADD MLOAD DUP3 DUP7 ADD MSTORE ADD MLOAD SWAP2 PUSH1 0x1F NOT DUP5 DUP3 SUB ADD PUSH2 0x220 DUP6 ADD MSTORE PUSH1 0x20 DUP1 DUP5 MLOAD SWAP3 DUP4 DUP2 MSTORE ADD SWAP4 ADD SWAP2 JUMPDEST DUP2 DUP2 LT PUSH2 0x3C2 JUMPI POP POP POP SUB SWAP1 RETURN JUMPDEST DUP3 MLOAD DUP5 MSTORE DUP6 SWAP5 POP PUSH1 0x20 SWAP4 DUP5 ADD SWAP4 SWAP1 SWAP3 ADD SWAP2 PUSH1 0x1 ADD PUSH2 0x3B4 JUMP JUMPDEST PUSH4 0x4E487B71 PUSH1 0xE0 SHL DUP5 MSTORE PUSH1 0x21 PUSH1 0x4 MSTORE PUSH1 0x24 DUP5 REVERT JUMPDEST DUP5 SLOAD DUP4 MSTORE PUSH1 0x1 SWAP5 DUP6 ADD SWAP5 DUP7 SWAP5 POP PUSH1 0x20 SWAP1 SWAP4 ADD SWAP3 ADD PUSH2 0x26E JUMP JUMPDEST PUSH4 0x4E487B71 PUSH1 0xE0 SHL DUP4 MSTORE PUSH1 0x21 PUSH1 0x4 MSTORE PUSH1 0x24 DUP4 REVERT JUMPDEST DUP1 REVERT JUMPDEST POP CALLVALUE PUSH2 0x41C JUMPI DUP1 PUSH1 0x3 NOT CALLDATASIZE ADD SLT PUSH2 0x41C JUMPI PUSH1 0x20 PUSH1 0x40 MLOAD PUSH1 0x1E DUP2 MSTORE RETURN JUMPDEST POP CALLVALUE PUSH2 0x41C JUMPI PUSH1 0x20 CALLDATASIZE PUSH1 0x3 NOT ADD SLT PUSH2 0x41C JUMPI PUSH1 0x4 CALLDATALOAD DUP1 DUP3 MSTORE PUSH1 0x4 PUSH1 0x20 MSTORE PUSH1 0x40 DUP3 KECCAK256 PUSH2 0x473 PUSH1 0x1 DUP1 PUSH1 0xA0 SHL SUB PUSH1 0x2 DUP4 ADD SLOAD AND CALLER EQ PUSH2 0x1C1B JUMP JUMPDEST PUSH1 0x8 DUP2 ADD SWAP1 DUP2 SLOAD SWAP1 PUSH1 0xFF DUP3 AND PUSH1 0x7 DUP2 LT ISZERO PUSH2 0x556 JUMPI PUSH1 0x2 SUB PUSH2 0x511 JUMPI PUSH1 0xD ADD SLOAD TIMESTAMP GT PUSH2 0x4CD JUMPI PUSH2 0xFFFF NOT AND PUSH2 0x105 OR SWAP1 SSTORE CALLER SWAP1 PUSH32 0xA71EC46AB116E07F9703467558AF33F82718419B32E2ACAFA86C65587891E3CC DUP4 DUP1 LOG3 DUP1 RETURN JUMPDEST PUSH1 0x64 PUSH1 0x40 MLOAD PUSH3 0x461BCD PUSH1 0xE5 SHL DUP2 MSTORE PUSH1 0x20 PUSH1 0x4 DUP3 ADD MSTORE PUSH1 0x20 PUSH1 0x24 DUP3 ADD MSTORE PUSH32 0x4A6F62457363726F773A20646973707574652077696E646F7720636C6F736564 PUSH1 0x44 DUP3 ADD MSTORE REVERT JUMPDEST PUSH1 0x40 MLOAD PUSH3 0x461BCD PUSH1 0xE5 SHL DUP2 MSTORE PUSH1 0x20 PUSH1 0x4 DUP3 ADD MSTORE PUSH1 0x18 PUSH1 0x24 DUP3 ADD MSTORE PUSH32 0x4A6F62457363726F773A206E6F742064656C6976657265640000000000000000 PUSH1 0x44 DUP3 ADD MSTORE PUSH1 0x64 SWAP1 REVERT JUMPDEST PUSH4 0x4E487B71 PUSH1 0xE0 SHL DUP7 MSTORE PUSH1 0x21 PUSH1 0x4 MSTORE PUSH1 0x24 DUP7 REVERT JUMPDEST POP CALLVALUE PUSH2 0x41C JUMPI PUSH1 0x40 CALLDATASIZE PUSH1 0x3 NOT ADD SLT PUSH2 0x41C JUMPI PUSH1 0x4 CALLDATALOAD PUSH1 0x24 SWAP1 DUP2 CALLDATALOAD SWAP2 DUP2 DUP5 MSTORE PUSH1 0x20 SWAP1 PUSH1 0x4 DUP3 MSTORE PUSH1 0x40 DUP6 KECCAK256 PUSH1 0xFF PUSH1 0x8 DUP3 ADD SLOAD AND PUSH1 0x7 DUP2 LT ISZERO PUSH2 0x73E JUMPI PUSH2 0x5AE SWAP1 ISZERO PUSH2 0x1B1B JUMP JUMPDEST PUSH1 0x5 DUP2 ADD SLOAD DUP6 GT PUSH2 0x6FA JUMPI DUP1 PUSH2 0x5CB PUSH1 0x7 PUSH1 0x2 SWAP4 ADD SLOAD TIMESTAMP LT PUSH2 0x1B67 JUMP JUMPDEST ADD SLOAD PUSH1 0x1 PUSH1 0x1 PUSH1 0xA0 SHL SUB SWAP1 DUP2 AND CALLER EQ PUSH2 0x6B6 JUMPI DUP4 DUP7 MSTORE PUSH1 0x5 DUP4 MSTORE PUSH1 0x40 DUP7 KECCAK256 SWAP1 PUSH1 0x40 MLOAD SWAP1 PUSH2 0x5F7 DUP3 PUSH2 0x1A37 JUMP JUMPDEST DUP6 DUP3 MSTORE DUP5 DUP3 ADD SWAP1 CALLER DUP3 MSTORE PUSH1 0x40 DUP4 ADD SWAP3 DUP9 DUP5 MSTORE PUSH1 0x60 DUP2 ADD SWAP5 TIMESTAMP DUP7 MSTORE DUP1 SLOAD SWAP1 PUSH1 0x1 PUSH1 0x40 SHL DUP3 LT ISZERO PUSH2 0x6A3 JUMPI SWAP1 PUSH2 0x630 SWAP2 PUSH1 0x1 DUP3 ADD DUP2 SSTORE PUSH2 0x1BB3 JUMP JUMPDEST SWAP7 SWAP1 SWAP7 PUSH2 0x691 JUMPI POP MLOAD DUP6 SSTORE SWAP1 MLOAD PUSH1 0x1 DUP6 ADD DUP1 SLOAD PUSH1 0x1 PUSH1 0x1 PUSH1 0xA0 SHL SUB NOT AND SWAP2 SWAP1 SWAP3 AND OR SWAP1 SSTORE MLOAD PUSH1 0x2 DUP4 ADD SSTORE MLOAD PUSH1 0x3 SWAP2 SWAP1 SWAP2 ADD SSTORE PUSH1 0x40 MLOAD SWAP3 DUP4 MSTORE CALLER SWAP3 PUSH32 0x104AD6D95C38F90069821E1C161EFC87A7D511235FBB3E1A9B06C38D87A79578 SWAP2 SWAP1 LOG3 DUP1 RETURN JUMPDEST PUSH4 0x4E487B71 PUSH1 0xE0 SHL DUP12 MSTORE PUSH1 0x4 DUP12 SWAP1 MSTORE DUP11 REVERT JUMPDEST PUSH4 0x4E487B71 PUSH1 0xE0 SHL DUP13 MSTORE PUSH1 0x41 PUSH1 0x4 MSTORE DUP8 DUP13 REVERT JUMPDEST PUSH1 0x40 MLOAD PUSH3 0x461BCD PUSH1 0xE5 SHL DUP2 MSTORE PUSH1 0x4 DUP2 ADD DUP5 SWAP1 MSTORE PUSH1 0x1D DUP2 DUP5 ADD MSTORE PUSH32 0x4A6F62457363726F773A20706C616E6E65722063616E6E6F7420626964000000 PUSH1 0x44 DUP3 ADD MSTORE PUSH1 0x64 SWAP1 REVERT JUMPDEST PUSH1 0x40 MLOAD PUSH3 0x461BCD PUSH1 0xE5 SHL DUP2 MSTORE PUSH1 0x4 DUP2 ADD DUP5 SWAP1 MSTORE PUSH1 0x1D DUP2 DUP5 ADD MSTORE PUSH32 0x4A6F62457363726F773A20626964206578636565647320627564676574000000 PUSH1 0x44 DUP3 ADD MSTORE PUSH1 0x64 SWAP1 REVERT JUMPDEST PUSH4 0x4E487B71 PUSH1 0xE0 SHL DUP8 MSTORE PUSH1 0x21 PUSH1 0x4 MSTORE DUP3 DUP8 REVERT JUMPDEST POP CALLVALUE PUSH2 0x41C JUMPI PUSH1 0x20 CALLDATASIZE PUSH1 0x3 NOT ADD SLT PUSH2 0x41C JUMPI PUSH1 0x40 PUSH1 0x20 SWAP2 PUSH1 0x4 CALLDATALOAD DUP2 MSTORE PUSH1 0x6 DUP4 MSTORE KECCAK256 SLOAD PUSH1 0x40 MLOAD SWAP1 DUP2 MSTORE RETURN JUMPDEST POP CALLVALUE PUSH2 0x41C JUMPI PUSH1 0x20 SWAP1 DUP2 PUSH1 0x3 NOT CALLDATASIZE ADD SLT PUSH2 0x41C JUMPI PUSH1 0x4 CALLDATALOAD DUP2 MSTORE PUSH1 0x5 DUP3 MSTORE PUSH1 0x40 DUP2 KECCAK256 SWAP2 DUP3 SLOAD SWAP1 PUSH8 0xFFFFFFFFFFFFFFFF DUP3 GT PUSH2 0x891 JUMPI SWAP2 SWAP3 SWAP1 PUSH1 0x40 MLOAD SWAP1 PUSH2 0x7C5 DUP5 DUP3 PUSH1 0x5 SHL ADD DUP4 PUSH2 0x1A70 JUMP JUMPDEST DUP1 DUP3 MSTORE DUP4 DUP3 ADD DUP1 SWAP4 DUP7 MSTORE DUP5 DUP7 KECCAK256 DUP7 SWAP2 JUMPDEST DUP4 DUP4 LT PUSH2 0x840 JUMPI POP POP POP POP PUSH1 0x40 MLOAD SWAP3 DUP1 DUP5 ADD SWAP2 DUP2 DUP6 MSTORE MLOAD DUP1 SWAP3 MSTORE PUSH1 0x40 DUP5 ADD SWAP3 SWAP5 JUMPDEST DUP3 DUP2 LT PUSH2 0x803 JUMPI DUP5 DUP5 SUB DUP6 RETURN JUMPDEST DUP6 MLOAD DUP1 MLOAD DUP6 MSTORE DUP1 DUP4 ADD MLOAD PUSH1 0x1 PUSH1 0x1 PUSH1 0xA0 SHL SUB AND DUP6 DUP5 ADD MSTORE PUSH1 0x40 DUP1 DUP3 ADD MLOAD SWAP1 DUP7 ADD MSTORE PUSH1 0x60 SWAP1 DUP2 ADD MLOAD SWAP1 DUP6 ADD MSTORE SWAP5 DUP2 ADD SWAP5 PUSH1 0x80 SWAP1 SWAP4 ADD SWAP3 PUSH1 0x1 ADD PUSH2 0x7F6 JUMP JUMPDEST PUSH1 0x4 DUP8 PUSH1 0x1 SWAP3 PUSH1 0x40 SWAP11 SWAP10 SWAP8 SWAP9 SWAP11 MLOAD PUSH2 0x857 DUP2 PUSH2 0x1A37 JUMP JUMPDEST DUP6 SLOAD DUP2 MSTORE DUP5 DUP1 PUSH1 0xA0 SHL SUB DUP6 DUP8 ADD SLOAD AND DUP4 DUP3 ADD MSTORE PUSH1 0x2 DUP7 ADD SLOAD PUSH1 0x40 DUP3 ADD MSTORE PUSH1 0x3 DUP7 ADD SLOAD PUSH1 0x60 DUP3 ADD MSTORE DUP2 MSTORE ADD SWAP3 ADD SWAP3 ADD SWAP2 SWAP1 SWAP7 SWAP5 SWAP4 SWAP6 SWAP7 PUSH2 0x7D5 JUMP JUMPDEST PUSH4 0x4E487B71 PUSH1 0xE0 SHL DUP4 MSTORE PUSH1 0x41 PUSH1 0x4 MSTORE PUSH1 0x24 DUP4 REVERT JUMPDEST POP CALLVALUE PUSH2 0x41C JUMPI PUSH1 0x20 CALLDATASIZE PUSH1 0x3 NOT ADD SLT PUSH2 0x41C JUMPI PUSH1 0x4 CALLDATALOAD PUSH2 0x8C8 PUSH1 0x2 DUP4 SLOAD EQ ISZERO PUSH2 0x1BCF JUMP JUMPDEST PUSH1 0x2 DUP3 SSTORE DUP1 DUP3 MSTORE PUSH1 0x4 PUSH1 0x20 MSTORE PUSH1 0x40 DUP3 KECCAK256 PUSH1 0x8 DUP2 ADD PUSH1 0xFF DUP2 SLOAD AND PUSH1 0x7 DUP2 LT ISZERO PUSH2 0xA30 JUMPI PUSH1 0x1 PUSH2 0x8F6 SWAP2 EQ PUSH2 0x1C60 JUMP JUMPDEST PUSH1 0x7 DUP3 ADD SLOAD TIMESTAMP GT ISZERO PUSH2 0x9EB JUMPI DUP3 DUP5 MSTORE PUSH1 0x6 PUSH1 0x20 MSTORE PUSH1 0x40 DUP5 KECCAK256 SWAP2 DUP5 DUP4 SLOAD SWAP4 SSTORE PUSH1 0x6 PUSH1 0xFF NOT DUP4 SLOAD AND OR SWAP2 DUP3 DUP2 SSTORE TIMESTAMP PUSH1 0xC DUP4 ADD SSTORE DUP6 PUSH1 0x1 DUP1 PUSH1 0xA0 SHL SUB SWAP4 DUP5 PUSH1 0x2 SLOAD AND PUSH1 0x6 DUP6 ADD SLOAD SWAP2 DUP2 EXTCODESIZE ISZERO PUSH2 0x9E7 JUMPI PUSH1 0x64 DUP8 SWAP2 DUP6 DUP1 SWAP5 PUSH1 0x40 MLOAD SWAP7 DUP8 SWAP6 DUP7 SWAP5 PUSH4 0x3FCDC29 PUSH1 0xE6 SHL DUP7 MSTORE PUSH1 0x10 SHR AND PUSH1 0x4 DUP6 ADD MSTORE DUP3 PUSH1 0x24 DUP6 ADD MSTORE PUSH1 0x44 DUP5 ADD MSTORE GAS CALL DUP1 ISZERO PUSH2 0x9DC JUMPI PUSH2 0x9C0 JUMPI JUMPDEST POP POP SWAP1 PUSH2 0x9B9 SWAP5 DUP4 PUSH1 0x2 SWAP4 SLOAD PUSH1 0x10 SHR AND SWAP1 PUSH32 0x517FC621FE1D6B3E6EE1621B5A5285AD1B0B03E5150C41A726A0356244E9C8FC DUP9 DUP1 LOG3 ADD SLOAD AND PUSH2 0x1E82 JUMP JUMPDEST PUSH1 0x1 DUP2 SSTORE DUP1 RETURN JUMPDEST PUSH2 0x9CC SWAP1 SWAP4 SWAP3 SWAP4 PUSH2 0x1A0D JUMP JUMPDEST PUSH2 0x9D8 JUMPI SWAP1 DUP6 CODESIZE PUSH2 0x97C JUMP JUMPDEST DUP6 DUP1 REVERT JUMPDEST PUSH1 0x40 MLOAD RETURNDATASIZE DUP5 DUP3 RETURNDATACOPY RETURNDATASIZE SWAP1 REVERT JUMPDEST DUP4 DUP1 REVERT JUMPDEST PUSH1 0x40 MLOAD PUSH3 0x461BCD PUSH1 0xE5 SHL DUP2 MSTORE PUSH1 0x20 PUSH1 0x4 DUP3 ADD MSTORE PUSH1 0x1E PUSH1 0x24 DUP3 ADD MSTORE PUSH32 0x4A6F62457363726F773A20646561646C696E65206E6F74207061737365640000 PUSH1 0x44 DUP3 ADD MSTORE PUSH1 0x64 SWAP1 REVERT JUMPDEST PUSH4 0x4E487B71 PUSH1 0xE0 SHL DUP6 MSTORE PUSH1 0x21 PUSH1 0x4 MSTORE PUSH1 0x24 DUP6 REVERT JUMPDEST POP CALLVALUE PUSH2 0x41C JUMPI DUP1 PUSH1 0x3 NOT CALLDATASIZE ADD SLT PUSH2 0x41C JUMPI PUSH1 0x1 SLOAD PUSH1 0x40 MLOAD PUSH1 0x1 PUSH1 0x1 PUSH1 0xA0 SHL SUB SWAP1 SWAP2 AND DUP2 MSTORE PUSH1 0x20 SWAP1 RETURN JUMPDEST POP CALLVALUE PUSH2 0x41C JUMPI DUP1 PUSH1 0x3 NOT CALLDATASIZE ADD SLT PUSH2 0x41C JUMPI PUSH1 0x2 SLOAD PUSH1 0x40 MLOAD PUSH1 0x1 PUSH1 0x1 PUSH1 0xA0 SHL SUB SWAP1 SWAP2 AND DUP2 MSTORE PUSH1 0x20 SWAP1 RETURN JUMPDEST POP CALLVALUE PUSH2 0x41C JUMPI PUSH1 0x20 DUP1 PUSH1 0x3 NOT CALLDATASIZE ADD SLT PUSH2 0xC76 JUMPI PUSH1 0x4 CALLDATALOAD SWAP1 PUSH2 0xABB PUSH1 0x2 DUP5 SLOAD EQ ISZERO PUSH2 0x1BCF JUMP JUMPDEST PUSH1 0x2 DUP4 SSTORE DUP2 DUP4 MSTORE PUSH1 0x4 DUP2 MSTORE PUSH1 0x40 DUP4 KECCAK256 SWAP1 PUSH1 0x8 DUP3 ADD SWAP3 PUSH1 0xFF DUP5 SLOAD AND PUSH1 0x7 DUP2 LT ISZERO PUSH2 0x556 JUMPI PUSH1 0x2 SUB PUSH2 0xC27 JUMPI PUSH1 0xD DUP4 ADD SLOAD TIMESTAMP GT ISZERO PUSH2 0xBD6 JUMPI DUP1 DUP6 MSTORE PUSH1 0x6 DUP3 MSTORE PUSH1 0x40 DUP6 KECCAK256 SWAP3 DUP6 DUP5 SLOAD SWAP5 SSTORE PUSH1 0x3 PUSH1 0xFF NOT DUP7 SLOAD AND OR SWAP1 DUP2 DUP7 SSTORE TIMESTAMP PUSH1 0xC DUP3 ADD SSTORE DUP7 PUSH1 0x1 DUP1 PUSH1 0xA0 SHL SUB SWAP3 DUP4 PUSH1 0x2 SLOAD AND PUSH1 0x6 DUP5 ADD SLOAD SWAP2 DUP2 EXTCODESIZE ISZERO PUSH2 0x9E7 JUMPI PUSH1 0x64 DUP7 SWAP2 DUP6 DUP1 SWAP5 PUSH1 0x40 MLOAD SWAP7 DUP8 SWAP6 DUP7 SWAP5 PUSH4 0x3FCDC29 PUSH1 0xE6 SHL DUP7 MSTORE PUSH1 0x10 SHR AND PUSH1 0x4 DUP6 ADD MSTORE PUSH1 0x1 PUSH1 0x24 DUP6 ADD MSTORE PUSH1 0x44 DUP5 ADD MSTORE GAS CALL DUP1 ISZERO PUSH2 0x9DC JUMPI PUSH2 0xBB6 JUMPI JUMPDEST POP POP SWAP1 PUSH2 0x9B9 SWAP6 PUSH2 0xBA2 PUSH1 0x1 PUSH32 0x23A8DA427309F19B9170CBCA53056C460894050D791C837EC738891ED8E7EEF5 SWAP7 SWAP6 SWAP5 ADD SLOAD PUSH2 0x1D52 JUMP JUMPDEST SLOAD PUSH1 0x10 SHR AND SWAP3 DUP4 SWAP3 PUSH1 0x40 MLOAD DUP7 DUP2 MSTORE LOG3 PUSH2 0x1E82 JUMP JUMPDEST PUSH2 0xBC4 SWAP1 SWAP6 SWAP5 SWAP4 SWAP3 SWAP6 PUSH2 0x1A0D JUMP JUMPDEST PUSH2 0xBD2 JUMPI SWAP1 SWAP2 SWAP3 DUP7 CODESIZE PUSH2 0xB6B JUMP JUMPDEST DUP7 DUP1 REVERT JUMPDEST PUSH1 0x40 MLOAD PUSH3 0x461BCD PUSH1 0xE5 SHL DUP2 MSTORE PUSH1 0x4 DUP2 ADD DUP4 SWAP1 MSTORE PUSH1 0x24 DUP1 DUP3 ADD MSTORE PUSH32 0x4A6F62457363726F773A20646973707574652077696E646F77207374696C6C20 PUSH1 0x44 DUP3 ADD MSTORE PUSH4 0x37B832B7 PUSH1 0xE1 SHL PUSH1 0x64 DUP3 ADD MSTORE PUSH1 0x84 SWAP1 REVERT JUMPDEST PUSH1 0x40 MLOAD PUSH3 0x461BCD PUSH1 0xE5 SHL DUP2 MSTORE PUSH1 0x4 DUP2 ADD DUP4 SWAP1 MSTORE PUSH1 0x21 PUSH1 0x24 DUP3 ADD MSTORE PUSH32 0x4A6F62457363726F773A206E6F7420696E2064656C6976657265642073746174 PUSH1 0x44 DUP3 ADD MSTORE PUSH1 0x65 PUSH1 0xF8 SHL PUSH1 0x64 DUP3 ADD MSTORE PUSH1 0x84 SWAP1 REVERT JUMPDEST POP DUP1 REVERT JUMPDEST POP CALLVALUE PUSH2 0x41C JUMPI PUSH1 0x20 CALLDATASIZE PUSH1 0x3 NOT ADD SLT PUSH2 0x41C JUMPI PUSH1 0x4 CALLDATALOAD PUSH2 0xC9D PUSH1 0x2 DUP4 SLOAD EQ ISZERO PUSH2 0x1BCF JUMP JUMPDEST PUSH1 0x2 DUP3 SSTORE DUP1 DUP3 MSTORE PUSH1 0x4 PUSH1 0x20 MSTORE PUSH1 0x40 DUP3 KECCAK256 PUSH1 0x2 DUP2 ADD SWAP1 PUSH1 0x8 PUSH1 0x1 DUP1 PUSH1 0xA0 SHL SUB SWAP2 PUSH2 0xCCA DUP4 DUP6 SLOAD AND CALLER EQ PUSH2 0x1C1B JUMP JUMPDEST ADD SWAP2 PUSH1 0xFF DUP4 SLOAD AND PUSH1 0x7 DUP2 LT ISZERO PUSH2 0x556 JUMPI PUSH2 0xD2A JUMPI DUP4 PUSH2 0x9B9 SWAP5 DUP7 MSTORE PUSH1 0x6 PUSH1 0x20 MSTORE PUSH1 0x40 DUP7 KECCAK256 SWAP4 DUP7 DUP6 SLOAD SWAP6 SSTORE PUSH1 0x4 PUSH1 0xFF NOT DUP3 SLOAD AND OR SWAP1 SSTORE PUSH32 0x9CCC861EAEC2ACEB9488758B457D6274B344707BC4E961CBAEFACD208025410F DUP7 DUP1 LOG2 SLOAD AND PUSH2 0x1E82 JUMP JUMPDEST PUSH1 0x40 MLOAD PUSH3 0x461BCD PUSH1 0xE5 SHL DUP2 MSTORE PUSH1 0x20 PUSH1 0x4 DUP3 ADD MSTORE PUSH1 0x24 DUP1 DUP3 ADD MSTORE PUSH32 0x4A6F62457363726F773A2063616E206F6E6C792063616E63656C206F70656E20 PUSH1 0x44 DUP3 ADD MSTORE PUSH4 0x6A6F6273 PUSH1 0xE0 SHL PUSH1 0x64 DUP3 ADD MSTORE PUSH1 0x84 SWAP1 REVERT JUMPDEST POP CALLVALUE PUSH2 0x41C JUMPI PUSH1 0x40 CALLDATASIZE PUSH1 0x3 NOT ADD SLT PUSH2 0x41C JUMPI PUSH1 0x4 CALLDATALOAD PUSH1 0x24 DUP1 CALLDATALOAD SWAP2 DUP3 ISZERO ISZERO SWAP2 DUP3 DUP5 SUB PUSH2 0xEB3 JUMPI PUSH1 0x2 SWAP1 PUSH2 0xDB0 DUP3 DUP8 SLOAD EQ ISZERO PUSH2 0x1BCF JUMP JUMPDEST DUP2 DUP7 SSTORE PUSH1 0x1 SLOAD PUSH1 0x1 PUSH1 0x1 PUSH1 0xA0 SHL SUB SWAP4 SWAP1 DUP5 AND CALLER SUB PUSH2 0xF9E JUMPI DUP1 DUP8 MSTORE PUSH1 0x4 PUSH1 0x20 MSTORE PUSH1 0x40 DUP8 KECCAK256 SWAP6 PUSH1 0x8 DUP8 ADD SWAP2 PUSH1 0xFF DUP4 SLOAD AND PUSH1 0x7 DUP2 LT ISZERO PUSH2 0xF8B JUMPI PUSH1 0x5 SUB PUSH2 0xF47 JUMPI DUP1 DUP10 MSTORE PUSH1 0x6 PUSH1 0x20 MSTORE PUSH32 0x6309D9F2499864A4F9D4DDB22F2B493AFDE8C215A1CD2E178647596CFFE2EFA4 PUSH1 0x20 PUSH1 0x40 DUP12 KECCAK256 SWAP9 DUP12 DUP11 SLOAD SWAP11 SSTORE TIMESTAMP PUSH1 0xC DUP13 ADD SSTORE PUSH1 0x40 MLOAD SWAP1 DUP2 MSTORE LOG2 ISZERO PUSH2 0xEB7 JUMPI SWAP1 DUP7 SWAP2 PUSH2 0x206 PUSH2 0xFFFF NOT DUP3 SLOAD AND OR DUP1 SWAP2 SSTORE DUP5 DUP5 SLOAD AND PUSH1 0x6 DUP9 ADD SLOAD SWAP1 DUP1 EXTCODESIZE ISZERO PUSH2 0xEB3 JUMPI DUP5 SWAP3 DUP4 PUSH1 0x64 SWAP3 DUP10 SWAP5 DUP3 PUSH1 0x40 MLOAD SWAP9 DUP10 SWAP8 DUP9 SWAP7 PUSH4 0x3FCDC29 PUSH1 0xE6 SHL DUP9 MSTORE PUSH1 0x10 SHR AND PUSH1 0x4 DUP8 ADD MSTORE DUP6 ADD MSTORE PUSH1 0x44 DUP5 ADD MSTORE GAS CALL DUP1 ISZERO PUSH2 0x9DC JUMPI PUSH2 0xE9F JUMPI JUMPDEST POP POP PUSH2 0x9B9 SWAP4 ADD SLOAD AND PUSH2 0x1E82 JUMP JUMPDEST PUSH2 0xEA8 SWAP1 PUSH2 0x1A0D JUMP JUMPDEST PUSH2 0xEB3 JUMPI DUP5 CODESIZE PUSH2 0xE91 JUMP JUMPDEST DUP5 DUP1 REVERT JUMPDEST SWAP6 SWAP5 SWAP1 SWAP2 PUSH2 0x303 PUSH2 0xFFFF NOT DUP9 SLOAD AND OR DUP8 SSTORE PUSH1 0x6 DUP5 DUP1 DUP4 SLOAD AND SWAP3 DUP5 ADD SLOAD AND SWAP3 ADD SLOAD DUP2 EXTCODESIZE ISZERO PUSH2 0xBD2 JUMPI DUP7 SWAP4 SWAP2 SWAP3 DUP5 DUP1 SWAP5 PUSH1 0x64 SWAP4 PUSH1 0x40 MLOAD SWAP8 DUP9 SWAP7 DUP8 SWAP6 PUSH4 0x3FCDC29 PUSH1 0xE6 SHL DUP8 MSTORE PUSH1 0x4 DUP8 ADD MSTORE DUP6 ADD MSTORE PUSH1 0x44 DUP5 ADD MSTORE GAS CALL DUP1 ISZERO PUSH2 0xF3C JUMPI PUSH2 0xF29 JUMPI JUMPDEST POP PUSH2 0xF24 SWAP3 SWAP4 SLOAD PUSH1 0x10 SHR AND PUSH2 0x1E82 JUMP JUMPDEST PUSH2 0x9B9 JUMP JUMPDEST SWAP3 PUSH2 0xF36 PUSH2 0xF24 SWAP5 PUSH2 0x1A0D JUMP JUMPDEST SWAP3 PUSH2 0xF14 JUMP JUMPDEST PUSH1 0x40 MLOAD RETURNDATASIZE DUP7 DUP3 RETURNDATACOPY RETURNDATASIZE SWAP1 REVERT JUMPDEST PUSH1 0x40 MLOAD PUSH3 0x461BCD PUSH1 0xE5 SHL DUP2 MSTORE PUSH1 0x20 PUSH1 0x4 DUP3 ADD MSTORE PUSH1 0x17 DUP2 DUP7 ADD MSTORE PUSH32 0x4A6F62457363726F773A206E6F74206469737075746564000000000000000000 PUSH1 0x44 DUP3 ADD MSTORE PUSH1 0x64 SWAP1 REVERT JUMPDEST PUSH4 0x4E487B71 PUSH1 0xE0 SHL DUP11 MSTORE PUSH1 0x21 PUSH1 0x4 MSTORE DUP5 DUP11 REVERT JUMPDEST PUSH1 0x40 MLOAD PUSH3 0x461BCD PUSH1 0xE5 SHL DUP2 MSTORE PUSH1 0x20 PUSH1 0x4 DUP3 ADD MSTORE PUSH1 0x14 DUP2 DUP5 ADD MSTORE PUSH20 0x2537B122B9B1B937BB9D103737BA1037BBB732B9 PUSH1 0x61 SHL PUSH1 0x44 DUP3 ADD MSTORE PUSH1 0x64 SWAP1 REVERT JUMPDEST POP CALLVALUE PUSH2 0x41C JUMPI PUSH1 0x60 CALLDATASIZE PUSH1 0x3 NOT ADD SLT PUSH2 0x41C JUMPI PUSH1 0x1 PUSH1 0x1 PUSH1 0xA0 SHL SUB PUSH1 0x24 CALLDATALOAD DUP2 DUP2 AND SWAP2 PUSH1 0x4 CALLDATALOAD SWAP2 DUP4 DUP2 SUB PUSH2 0xEB3 JUMPI PUSH1 0x44 CALLDATALOAD SWAP1 PUSH1 0x2 SWAP5 PUSH2 0x1019 DUP7 DUP9 SLOAD EQ ISZERO PUSH2 0x1BCF JUMP JUMPDEST DUP6 DUP8 SSTORE DUP5 DUP8 MSTORE PUSH1 0x4 PUSH1 0x20 MSTORE PUSH1 0x40 DUP8 KECCAK256 SWAP5 DUP7 DUP7 ADD SWAP7 PUSH2 0x103B DUP7 DUP10 SLOAD AND CALLER EQ PUSH2 0x1C1B JUMP JUMPDEST PUSH1 0x8 DUP8 ADD SWAP1 DUP2 SLOAD SWAP1 PUSH1 0xFF DUP3 AND PUSH1 0x7 DUP2 LT ISZERO PUSH2 0x11C2 JUMPI PUSH2 0x105A SWAP1 ISZERO PUSH2 0x1B1B JUMP JUMPDEST DUP4 DUP12 MSTORE PUSH1 0x5 PUSH1 0x20 MSTORE PUSH1 0x40 DUP12 KECCAK256 DUP1 SLOAD DUP13 SWAP3 SWAP1 SWAP2 DUP4 JUMPDEST DUP4 DUP2 LT PUSH2 0x116F JUMPI JUMPDEST POP POP POP POP ISZERO PUSH2 0x112A JUMPI PUSH1 0x5 DUP9 ADD SLOAD SWAP5 DUP7 DUP7 SUB SWAP9 DUP7 DUP11 GT PUSH2 0x1116 JUMPI PUSH1 0x6 SWAP1 DUP2 ADD DUP9 SWAP1 SSTORE PUSH2 0xFF01 PUSH1 0x1 PUSH1 0xB0 SHL SUB NOT SWAP1 SWAP3 AND PUSH1 0x10 SWAP2 SWAP1 SWAP2 SHL PUSH3 0x10000 PUSH1 0x1 PUSH1 0xB0 SHL SUB AND OR PUSH1 0x1 OR SWAP1 SWAP2 SSTORE DUP2 DUP10 MSTORE PUSH1 0x20 SWAP1 DUP2 MSTORE PUSH1 0x40 DUP1 DUP11 KECCAK256 DUP7 SWAP1 SSTORE MLOAD DUP6 DUP2 MSTORE PUSH32 0x11584506704F1759083D660085355522A050C85B08441C428ACCD0CE05F96928 SWAP2 SWAP1 LOG3 SUB PUSH2 0x1103 JUMPI JUMPDEST DUP4 PUSH1 0x1 DUP2 SSTORE DUP1 RETURN JUMPDEST PUSH2 0x110E SWAP3 SLOAD AND PUSH2 0x1E82 JUMP JUMPDEST CODESIZE DUP1 DUP1 PUSH2 0x10FB JUMP JUMPDEST PUSH4 0x4E487B71 PUSH1 0xE0 SHL DUP13 MSTORE PUSH1 0x11 PUSH1 0x4 MSTORE PUSH1 0x24 DUP13 REVERT JUMPDEST PUSH1 0x40 MLOAD PUSH3 0x461BCD PUSH1 0xE5 SHL DUP2 MSTORE PUSH1 0x20 PUSH1 0x4 DUP3 ADD MSTORE PUSH1 0x18 PUSH1 0x24 DUP3 ADD MSTORE PUSH32 0x4A6F62457363726F773A20626964206E6F7420666F756E640000000000000000 PUSH1 0x44 DUP3 ADD MSTORE PUSH1 0x64 SWAP1 REVERT JUMPDEST PUSH2 0x1179 DUP2 DUP4 PUSH2 0x1BB3 JUMP JUMPDEST POP DUP10 DUP14 PUSH1 0x1 DUP1 SWAP4 ADD SLOAD AND EQ DUP1 PUSH2 0x11AC JUMPI JUMPDEST PUSH2 0x119D JUMPI POP PUSH2 0x1198 SWAP1 PUSH2 0x19E8 JUMP JUMPDEST PUSH2 0x106E JUMP JUMPDEST SWAP5 POP POP POP POP POP CODESIZE DUP1 DUP1 DUP1 PUSH2 0x1076 JUMP JUMPDEST POP DUP12 DUP5 PUSH2 0x11B9 DUP5 DUP7 PUSH2 0x1BB3 JUMP JUMPDEST POP ADD SLOAD EQ PUSH2 0x118A JUMP JUMPDEST PUSH4 0x4E487B71 PUSH1 0xE0 SHL DUP13 MSTORE PUSH1 0x21 PUSH1 0x4 MSTORE PUSH1 0x24 DUP13 REVERT JUMPDEST POP CALLVALUE PUSH2 0x41C JUMPI PUSH1 0x60 CALLDATASIZE PUSH1 0x3 NOT ADD SLT PUSH2 0x41C JUMPI PUSH8 0xFFFFFFFFFFFFFFFF SWAP1 PUSH1 0x4 CALLDATALOAD PUSH1 0x24 CALLDATALOAD PUSH1 0x44 CALLDATALOAD DUP5 DUP2 GT PUSH2 0x9E7 JUMPI PUSH2 0x1210 SWAP1 CALLDATASIZE SWAP1 PUSH1 0x4 ADD PUSH2 0x1975 JUMP JUMPDEST SWAP2 SWAP1 SWAP5 DUP4 DUP6 MSTORE PUSH1 0x20 SWAP3 PUSH1 0x4 DUP5 MSTORE PUSH1 0x40 DUP7 KECCAK256 SWAP2 PUSH1 0x8 DUP4 ADD SWAP1 DUP2 SLOAD CALLER PUSH1 0x1 DUP1 PUSH1 0xA0 SHL SUB DUP3 PUSH1 0x10 SHR AND SUB PUSH2 0x1410 JUMPI PUSH1 0xFF AND PUSH1 0x7 DUP2 LT ISZERO PUSH2 0x13FC JUMPI PUSH2 0x1254 PUSH1 0x1 DUP1 SWAP3 EQ PUSH2 0x1C60 JUMP JUMPDEST PUSH2 0x1264 PUSH1 0x7 DUP7 ADD SLOAD TIMESTAMP GT ISZERO PUSH2 0x1B67 JUMP JUMPDEST DUP6 PUSH1 0x9 DUP7 ADD SSTORE PUSH1 0xA DUP6 ADD SWAP2 DUP5 GT PUSH2 0x13E8 JUMPI PUSH2 0x127F DUP3 SLOAD PUSH2 0x1A92 JUMP JUMPDEST PUSH1 0x1F DUP2 GT PUSH2 0x13A2 JUMPI JUMPDEST POP DUP4 DUP10 PUSH1 0x1F DUP3 GT PUSH1 0x1 EQ PUSH2 0x1337 JUMPI DUP11 SWAP3 SWAP1 DUP3 PUSH2 0x132C JUMPI JUMPDEST POP SHL SWAP1 PUSH1 0x0 NOT DUP6 PUSH1 0x3 SHL SHR NOT AND OR SWAP1 SSTORE JUMPDEST PUSH1 0x2 PUSH1 0xFF NOT DUP3 SLOAD AND OR SWAP1 SSTORE PUSH1 0x1E TIMESTAMP ADD SWAP2 DUP3 TIMESTAMP GT PUSH2 0x1318 JUMPI SWAP7 PUSH2 0x130C SWAP2 DUP4 PUSH1 0xD PUSH32 0xF2CAAC1ABCF68F69B9520AE84FB94B6F8B53EC64129E95CD8DD6B0BBDF665F74 SWAP9 SWAP10 SWAP11 ADD SSTORE PUSH1 0x60 PUSH1 0x40 MLOAD SWAP7 DUP8 SWAP7 DUP8 MSTORE DUP7 ADD MSTORE PUSH1 0x60 DUP6 ADD SWAP2 PUSH2 0x1AFA JUMP JUMPDEST SWAP1 PUSH1 0x40 DUP4 ADD MSTORE SUB SWAP1 LOG2 DUP1 RETURN JUMPDEST PUSH4 0x4E487B71 PUSH1 0xE0 SHL DUP8 MSTORE PUSH1 0x11 PUSH1 0x4 MSTORE PUSH1 0x24 DUP8 REVERT JUMPDEST DUP13 ADD CALLDATALOAD SWAP3 POP CODESIZE PUSH2 0x129F JUMP JUMPDEST DUP11 SWAP2 PUSH1 0x1F NOT DUP2 AND DUP6 DUP5 MSTORE DUP14 DUP12 DUP7 DUP2 DUP8 KECCAK256 SWAP7 SWAP3 JUMPDEST DUP5 DUP5 LT PUSH2 0x1382 JUMPI POP POP POP POP LT PUSH2 0x1368 JUMPI JUMPDEST POP POP DUP4 DUP2 SHL ADD SWAP1 SSTORE PUSH2 0x12B0 JUMP JUMPDEST DUP12 ADD CALLDATALOAD PUSH1 0x0 NOT PUSH1 0x3 DUP8 SWAP1 SHL PUSH1 0xF8 AND SHR NOT AND SWAP1 SSTORE CODESIZE DUP1 PUSH2 0x135B JUMP JUMPDEST DUP3 SWAP5 SWAP6 POP SWAP6 DUP1 SWAP8 SWAP2 SWAP3 SWAP4 SWAP7 ADD CALLDATALOAD DUP2 SSTORE ADD SWAP5 ADD SWAP3 ADD SWAP1 DUP8 SWAP2 DUP12 DUP16 DUP8 SWAP1 PUSH2 0x134A JUMP JUMPDEST DUP3 DUP11 MSTORE DUP8 DUP11 KECCAK256 PUSH1 0x1F DUP7 ADD PUSH1 0x5 SHR DUP2 ADD SWAP2 DUP10 DUP8 LT PUSH2 0x13DE JUMPI JUMPDEST PUSH1 0x1F ADD PUSH1 0x5 SHR ADD SWAP1 DUP3 SWAP1 JUMPDEST DUP3 DUP2 LT PUSH2 0x13D3 JUMPI POP POP PUSH2 0x1288 JUMP JUMPDEST DUP12 DUP2 SSTORE ADD DUP3 SWAP1 PUSH2 0x13C5 JUMP JUMPDEST SWAP1 SWAP2 POP DUP2 SWAP1 PUSH2 0x13BA JUMP JUMPDEST PUSH4 0x4E487B71 PUSH1 0xE0 SHL DUP10 MSTORE PUSH1 0x41 PUSH1 0x4 MSTORE PUSH1 0x24 DUP10 REVERT JUMPDEST PUSH4 0x4E487B71 PUSH1 0xE0 SHL DUP10 MSTORE PUSH1 0x21 PUSH1 0x4 MSTORE PUSH1 0x24 DUP10 REVERT JUMPDEST PUSH1 0x40 MLOAD PUSH3 0x461BCD PUSH1 0xE5 SHL DUP2 MSTORE PUSH1 0x4 DUP2 ADD DUP9 SWAP1 MSTORE PUSH1 0x19 PUSH1 0x24 DUP3 ADD MSTORE PUSH32 0x4A6F62457363726F773A206E6F74207370656369616C69737400000000000000 PUSH1 0x44 DUP3 ADD MSTORE PUSH1 0x64 SWAP1 REVERT JUMPDEST DUP3 PUSH1 0x80 CALLDATASIZE PUSH1 0x3 NOT ADD SLT PUSH2 0x41C JUMPI PUSH1 0x4 CALLDATALOAD PUSH8 0xFFFFFFFFFFFFFFFF DUP2 GT PUSH2 0xC76 JUMPI PUSH2 0x1482 SWAP1 CALLDATASIZE SWAP1 PUSH1 0x4 ADD PUSH2 0x1975 JUMP JUMPDEST SWAP2 PUSH1 0x24 CALLDATALOAD PUSH8 0xFFFFFFFFFFFFFFFF DUP2 GT PUSH2 0xC76 JUMPI PUSH2 0x14A3 SWAP1 CALLDATASIZE SWAP1 PUSH1 0x4 ADD PUSH2 0x1975 JUMP JUMPDEST SWAP3 SWAP1 SWAP5 CALLVALUE ISZERO PUSH2 0x1933 JUMPI POP TIMESTAMP PUSH1 0x44 CALLDATALOAD GT ISZERO PUSH2 0x18EE JUMPI PUSH1 0x3 SLOAD PUSH2 0x14C3 DUP2 PUSH2 0x19E8 JUMP JUMPDEST PUSH1 0x3 SSTORE PUSH1 0x40 MLOAD PUSH1 0x20 DUP2 ADD SWAP2 CALLER PUSH1 0x60 SHL DUP4 MSTORE TIMESTAMP PUSH1 0x34 DUP4 ADD MSTORE PUSH1 0x54 DUP3 ADD MSTORE PUSH1 0x54 DUP2 MSTORE PUSH2 0x14EC DUP2 PUSH2 0x1A37 JUMP JUMPDEST MLOAD SWAP1 KECCAK256 SWAP4 DUP5 DUP4 MSTORE PUSH1 0x4 PUSH1 0x20 MSTORE PUSH1 0x40 DUP4 KECCAK256 SWAP2 DUP6 DUP4 SSTORE PUSH1 0x64 CALLDATALOAD PUSH1 0x1 DUP5 ADD SSTORE PUSH1 0x2 DUP4 ADD CALLER PUSH12 0xFFFFFFFFFFFFFFFFFFFFFFFF PUSH1 0xA0 SHL DUP3 SLOAD AND OR SWAP1 SSTORE PUSH8 0xFFFFFFFFFFFFFFFF DUP3 GT PUSH2 0x18DA JUMPI DUP2 SWAP1 PUSH2 0x1541 PUSH1 0x3 DUP6 ADD SLOAD PUSH2 0x1A92 JUMP JUMPDEST PUSH1 0x1F DUP2 GT PUSH2 0x188A JUMPI JUMPDEST POP DUP5 SWAP1 PUSH1 0x1F DUP4 GT PUSH1 0x1 EQ PUSH2 0x181E JUMPI DUP6 SWAP3 PUSH2 0x1813 JUMPI JUMPDEST POP POP DUP2 PUSH1 0x1 SHL SWAP2 PUSH1 0x0 NOT SWAP1 PUSH1 0x3 SHL SHR NOT AND OR PUSH1 0x3 DUP3 ADD SSTORE JUMPDEST PUSH8 0xFFFFFFFFFFFFFFFF DUP4 GT PUSH2 0x17FF JUMPI PUSH2 0x1593 PUSH1 0x4 DUP3 ADD SLOAD PUSH2 0x1A92 JUMP JUMPDEST PUSH1 0x1F DUP2 GT PUSH2 0x17BB JUMPI JUMPDEST POP DUP3 DUP3 PUSH1 0x1F DUP3 GT PUSH1 0x1 EQ PUSH2 0x1751 JUMPI DUP4 SWAP2 PUSH2 0x1746 JUMPI JUMPDEST POP DUP4 PUSH1 0x1 SHL SWAP1 PUSH1 0x0 NOT DUP6 PUSH1 0x3 SHL SHR NOT AND OR PUSH1 0x4 DUP3 ADD SSTORE JUMPDEST CALLVALUE PUSH1 0x5 DUP3 ADD SSTORE PUSH1 0x44 CALLDATALOAD PUSH1 0x7 DUP3 ADD SSTORE PUSH1 0x8 DUP2 ADD PUSH2 0xFFFF NOT DUP2 SLOAD AND SWAP1 SSTORE PUSH1 0xB TIMESTAMP SWAP2 ADD SSTORE DUP3 DUP2 MSTORE PUSH1 0x6 PUSH1 0x20 MSTORE CALLVALUE PUSH1 0x40 DUP3 KECCAK256 SSTORE PUSH1 0x64 CALLDATALOAD PUSH2 0x1656 JUMPI JUMPDEST POP DUP2 PUSH32 0xE532336F5A290DA73A2E3B063F3B9E63D17EA8E7FE2FFE8600AE3BCC8049903B PUSH2 0x163A PUSH1 0x20 SWAP6 PUSH1 0x40 MLOAD SWAP5 PUSH1 0x60 DUP7 MSTORE PUSH1 0x60 DUP7 ADD SWAP2 PUSH2 0x1AFA JUMP JUMPDEST SWAP3 CALLVALUE DUP7 DUP3 ADD MSTORE PUSH1 0x64 CALLDATALOAD PUSH1 0x40 DUP3 ADD MSTORE DUP1 CALLER SWAP5 SUB SWAP1 LOG3 PUSH1 0x40 MLOAD SWAP1 DUP2 MSTORE RETURN JUMPDEST PUSH1 0x64 CALLDATALOAD DUP2 MSTORE PUSH1 0x4 PUSH1 0x20 MSTORE PUSH1 0x40 DUP2 KECCAK256 PUSH1 0x2 ADD SLOAD PUSH1 0x1 PUSH1 0x1 PUSH1 0xA0 SHL SUB AND ISZERO PUSH2 0x1701 JUMPI PUSH1 0x64 CALLDATALOAD DUP2 MSTORE PUSH1 0x4 PUSH1 0x20 MSTORE PUSH1 0xE PUSH1 0x40 DUP3 KECCAK256 ADD DUP1 SLOAD SWAP2 PUSH1 0x1 PUSH1 0x40 SHL DUP4 LT ISZERO PUSH2 0x16ED JUMPI POP PUSH2 0x163A PUSH1 0x20 SWAP6 PUSH2 0x16CF DUP5 PUSH32 0xE532336F5A290DA73A2E3B063F3B9E63D17EA8E7FE2FFE8600AE3BCC8049903B SWAP5 PUSH1 0x1 DUP10 SWAP8 ADD DUP2 SSTORE PUSH2 0x1ACC JUMP JUMPDEST DUP2 SLOAD SWAP1 PUSH1 0x3 SHL SWAP1 DUP7 DUP3 SHL SWAP2 PUSH1 0x0 NOT SWAP1 SHL NOT AND OR SWAP1 SSTORE SWAP6 POP POP POP PUSH2 0x15FF JUMP JUMPDEST PUSH4 0x4E487B71 PUSH1 0xE0 SHL DUP2 MSTORE PUSH1 0x41 PUSH1 0x4 MSTORE PUSH1 0x24 SWAP1 REVERT JUMPDEST PUSH1 0x40 MLOAD PUSH3 0x461BCD PUSH1 0xE5 SHL DUP2 MSTORE PUSH1 0x20 PUSH1 0x4 DUP3 ADD MSTORE PUSH1 0x1B PUSH1 0x24 DUP3 ADD MSTORE PUSH32 0x4A6F62457363726F773A20706172656E74206E6F7420666F756E640000000000 PUSH1 0x44 DUP3 ADD MSTORE PUSH1 0x64 SWAP1 REVERT JUMPDEST SWAP1 POP DUP6 ADD CALLDATALOAD DUP7 PUSH2 0x15B1 JUMP JUMPDEST PUSH1 0x4 DUP4 ADD DUP5 MSTORE PUSH1 0x20 DUP5 KECCAK256 SWAP2 POP DUP4 JUMPDEST PUSH1 0x1F NOT DUP7 AND DUP2 LT PUSH2 0x17A3 JUMPI POP DUP5 PUSH1 0x1F NOT DUP2 AND LT PUSH2 0x1789 JUMPI JUMPDEST POP POP PUSH1 0x1 DUP4 DUP2 SHL ADD PUSH1 0x4 DUP3 ADD SSTORE PUSH2 0x15C8 JUMP JUMPDEST DUP7 ADD CALLDATALOAD PUSH1 0x0 NOT PUSH1 0x3 DUP7 SWAP1 SHL PUSH1 0xF8 AND SHR NOT AND SWAP1 SSTORE DUP6 DUP1 PUSH2 0x1777 JUMP JUMPDEST SWAP1 SWAP2 PUSH1 0x20 PUSH1 0x1 DUP2 SWAP3 DUP6 DUP12 ADD CALLDATALOAD DUP2 SSTORE ADD SWAP4 ADD SWAP2 ADD PUSH2 0x175F JUMP JUMPDEST PUSH1 0x4 DUP3 ADD DUP4 MSTORE PUSH1 0x20 DUP4 KECCAK256 PUSH1 0x1F DUP6 ADD PUSH1 0x5 SHR DUP2 ADD PUSH1 0x20 DUP7 LT PUSH2 0x17F8 JUMPI JUMPDEST PUSH1 0x1F DUP4 ADD PUSH1 0x5 SHR DUP3 ADD DUP2 LT PUSH2 0x17ED JUMPI POP POP PUSH2 0x159C JUMP JUMPDEST DUP5 DUP2 SSTORE PUSH1 0x1 ADD PUSH2 0x17D7 JUMP JUMPDEST POP DUP1 PUSH2 0x17D7 JUMP JUMPDEST PUSH4 0x4E487B71 PUSH1 0xE0 SHL DUP3 MSTORE PUSH1 0x41 PUSH1 0x4 MSTORE PUSH1 0x24 DUP3 REVERT JUMPDEST ADD CALLDATALOAD SWAP1 POP DUP8 DUP1 PUSH2 0x155F JUMP JUMPDEST PUSH1 0x3 DUP6 ADD DUP7 MSTORE PUSH1 0x20 DUP7 KECCAK256 SWAP3 POP SWAP1 PUSH1 0x1F NOT DUP5 AND DUP7 JUMPDEST DUP2 DUP2 LT PUSH2 0x1872 JUMPI POP SWAP1 DUP5 PUSH1 0x1 SWAP6 SWAP5 SWAP4 SWAP3 LT PUSH2 0x1858 JUMPI JUMPDEST POP POP POP DUP2 SHL ADD PUSH1 0x3 DUP3 ADD SSTORE PUSH2 0x1577 JUMP JUMPDEST ADD CALLDATALOAD PUSH1 0x0 NOT PUSH1 0x3 DUP5 SWAP1 SHL PUSH1 0xF8 AND SHR NOT AND SWAP1 SSTORE DUP8 DUP1 DUP1 PUSH2 0x1848 JUMP JUMPDEST SWAP2 SWAP4 PUSH1 0x20 PUSH1 0x1 DUP2 SWAP3 DUP8 DUP8 ADD CALLDATALOAD DUP2 SSTORE ADD SWAP6 ADD SWAP3 ADD PUSH2 0x1832 JUMP JUMPDEST SWAP1 SWAP2 POP PUSH1 0x3 DUP5 ADD DUP6 MSTORE PUSH1 0x20 DUP6 KECCAK256 PUSH1 0x1F DUP5 ADD PUSH1 0x5 SHR DUP2 ADD PUSH1 0x20 DUP6 LT PUSH2 0x18D3 JUMPI JUMPDEST SWAP1 DUP5 SWAP4 SWAP3 SWAP2 JUMPDEST PUSH1 0x1F DUP4 ADD PUSH1 0x5 SHR DUP3 ADD DUP2 LT PUSH2 0x18C5 JUMPI POP POP PUSH2 0x154A JUMP JUMPDEST DUP8 DUP2 SSTORE DUP6 SWAP5 POP PUSH1 0x1 ADD PUSH2 0x18AF JUMP JUMPDEST POP DUP1 PUSH2 0x18A9 JUMP JUMPDEST PUSH4 0x4E487B71 PUSH1 0xE0 SHL DUP5 MSTORE PUSH1 0x41 PUSH1 0x4 MSTORE PUSH1 0x24 DUP5 REVERT JUMPDEST PUSH1 0x40 MLOAD PUSH3 0x461BCD PUSH1 0xE5 SHL DUP2 MSTORE PUSH1 0x20 PUSH1 0x4 DUP3 ADD MSTORE PUSH1 0x1B PUSH1 0x24 DUP3 ADD MSTORE PUSH32 0x4A6F62457363726F773A20646561646C696E6520696E20706173740000000000 PUSH1 0x44 DUP3 ADD MSTORE PUSH1 0x64 SWAP1 REVERT JUMPDEST PUSH3 0x461BCD PUSH1 0xE5 SHL DUP2 MSTORE PUSH1 0x20 PUSH1 0x4 DUP3 ADD MSTORE PUSH1 0x1A PUSH1 0x24 DUP3 ADD MSTORE PUSH32 0x4A6F62457363726F773A20627564676574207265717569726564000000000000 PUSH1 0x44 DUP3 ADD MSTORE PUSH1 0x64 SWAP1 REVERT JUMPDEST SWAP2 DUP2 PUSH1 0x1F DUP5 ADD SLT ISZERO PUSH2 0x19A3 JUMPI DUP3 CALLDATALOAD SWAP2 PUSH8 0xFFFFFFFFFFFFFFFF DUP4 GT PUSH2 0x19A3 JUMPI PUSH1 0x20 DUP4 DUP2 DUP7 ADD SWAP6 ADD ADD GT PUSH2 0x19A3 JUMPI JUMP JUMPDEST PUSH1 0x0 DUP1 REVERT JUMPDEST SWAP2 SWAP1 DUP3 MLOAD SWAP3 DUP4 DUP3 MSTORE PUSH1 0x0 JUMPDEST DUP5 DUP2 LT PUSH2 0x19D4 JUMPI POP POP DUP3 PUSH1 0x0 PUSH1 0x20 DUP1 SWAP5 SWAP6 DUP5 ADD ADD MSTORE PUSH1 0x1F DUP1 NOT SWAP2 ADD AND ADD ADD SWAP1 JUMP JUMPDEST PUSH1 0x20 DUP2 DUP4 ADD DUP2 ADD MLOAD DUP5 DUP4 ADD DUP3 ADD MSTORE ADD PUSH2 0x19B3 JUMP JUMPDEST PUSH1 0x0 NOT DUP2 EQ PUSH2 0x19F7 JUMPI PUSH1 0x1 ADD SWAP1 JUMP JUMPDEST PUSH4 0x4E487B71 PUSH1 0xE0 SHL PUSH1 0x0 MSTORE PUSH1 0x11 PUSH1 0x4 MSTORE PUSH1 0x24 PUSH1 0x0 REVERT JUMPDEST PUSH8 0xFFFFFFFFFFFFFFFF DUP2 GT PUSH2 0x1A21 JUMPI PUSH1 0x40 MSTORE JUMP JUMPDEST PUSH4 0x4E487B71 PUSH1 0xE0 SHL PUSH1 0x0 MSTORE PUSH1 0x41 PUSH1 0x4 MSTORE PUSH1 0x24 PUSH1 0x0 REVERT JUMPDEST PUSH1 0x80 DUP2 ADD SWAP1 DUP2 LT PUSH8 0xFFFFFFFFFFFFFFFF DUP3 GT OR PUSH2 0x1A21 JUMPI PUSH1 0x40 MSTORE JUMP JUMPDEST PUSH2 0x220 DUP2 ADD SWAP1 DUP2 LT PUSH8 0xFFFFFFFFFFFFFFFF DUP3 GT OR PUSH2 0x1A21 JUMPI PUSH1 0x40 MSTORE JUMP JUMPDEST SWAP1 PUSH1 0x1F DUP1 NOT SWAP2 ADD AND DUP2 ADD SWAP1 DUP2 LT PUSH8 0xFFFFFFFFFFFFFFFF DUP3 GT OR PUSH2 0x1A21 JUMPI PUSH1 0x40 MSTORE JUMP JUMPDEST SWAP1 PUSH1 0x1 DUP3 DUP2 SHR SWAP3 AND DUP1 ISZERO PUSH2 0x1AC2 JUMPI JUMPDEST PUSH1 0x20 DUP4 LT EQ PUSH2 0x1AAC JUMPI JUMP JUMPDEST PUSH4 0x4E487B71 PUSH1 0xE0 SHL PUSH1 0x0 MSTORE PUSH1 0x22 PUSH1 0x4 MSTORE PUSH1 0x24 PUSH1 0x0 REVERT JUMPDEST SWAP2 PUSH1 0x7F AND SWAP2 PUSH2 0x1AA1 JUMP JUMPDEST DUP1 SLOAD DUP3 LT ISZERO PUSH2 0x1AE4 JUMPI PUSH1 0x0 MSTORE PUSH1 0x20 PUSH1 0x0 KECCAK256 ADD SWAP1 PUSH1 0x0 SWAP1 JUMP JUMPDEST PUSH4 0x4E487B71 PUSH1 0xE0 SHL PUSH1 0x0 MSTORE PUSH1 0x32 PUSH1 0x4 MSTORE PUSH1 0x24 PUSH1 0x0 REVERT JUMPDEST SWAP1 DUP1 PUSH1 0x20 SWAP4 SWAP3 DUP2 DUP5 MSTORE DUP5 DUP5 ADD CALLDATACOPY PUSH1 0x0 DUP3 DUP3 ADD DUP5 ADD MSTORE PUSH1 0x1F ADD PUSH1 0x1F NOT AND ADD ADD SWAP1 JUMP JUMPDEST ISZERO PUSH2 0x1B22 JUMPI JUMP JUMPDEST PUSH1 0x40 MLOAD PUSH3 0x461BCD PUSH1 0xE5 SHL DUP2 MSTORE PUSH1 0x20 PUSH1 0x4 DUP3 ADD MSTORE PUSH1 0x17 PUSH1 0x24 DUP3 ADD MSTORE PUSH32 0x4A6F62457363726F773A206A6F62206E6F74206F70656E000000000000000000 PUSH1 0x44 DUP3 ADD MSTORE PUSH1 0x64 SWAP1 REVERT JUMPDEST ISZERO PUSH2 0x1B6E JUMPI JUMP JUMPDEST PUSH1 0x40 MLOAD PUSH3 0x461BCD PUSH1 0xE5 SHL DUP2 MSTORE PUSH1 0x20 PUSH1 0x4 DUP3 ADD MSTORE PUSH1 0x18 PUSH1 0x24 DUP3 ADD MSTORE PUSH32 0x4A6F62457363726F773A207061737420646561646C696E650000000000000000 PUSH1 0x44 DUP3 ADD MSTORE PUSH1 0x64 SWAP1 REVERT JUMPDEST DUP1 SLOAD DUP3 LT ISZERO PUSH2 0x1AE4 JUMPI PUSH1 0x0 MSTORE PUSH1 0x20 PUSH1 0x0 KECCAK256 SWAP1 PUSH1 0x2 SHL ADD SWAP1 PUSH1 0x0 SWAP1 JUMP JUMPDEST ISZERO PUSH2 0x1BD6 JUMPI JUMP JUMPDEST PUSH1 0x40 MLOAD PUSH3 0x461BCD PUSH1 0xE5 SHL DUP2 MSTORE PUSH1 0x20 PUSH1 0x4 DUP3 ADD MSTORE PUSH1 0x1F PUSH1 0x24 DUP3 ADD MSTORE PUSH32 0x5265656E7472616E637947756172643A207265656E7472616E742063616C6C00 PUSH1 0x44 DUP3 ADD MSTORE PUSH1 0x64 SWAP1 REVERT JUMPDEST ISZERO PUSH2 0x1C22 JUMPI JUMP JUMPDEST PUSH1 0x40 MLOAD PUSH3 0x461BCD PUSH1 0xE5 SHL DUP2 MSTORE PUSH1 0x20 PUSH1 0x4 DUP3 ADD MSTORE PUSH1 0x16 PUSH1 0x24 DUP3 ADD MSTORE PUSH22 0x2537B122B9B1B937BB9D103737BA10383630B73732B9 PUSH1 0x51 SHL PUSH1 0x44 DUP3 ADD MSTORE PUSH1 0x64 SWAP1 REVERT JUMPDEST ISZERO PUSH2 0x1C67 JUMPI JUMP JUMPDEST PUSH1 0x40 MLOAD PUSH3 0x461BCD PUSH1 0xE5 SHL DUP2 MSTORE PUSH1 0x20 PUSH1 0x4 DUP3 ADD MSTORE PUSH1 0x1B PUSH1 0x24 DUP3 ADD MSTORE PUSH32 0x4A6F62457363726F773A206A6F62206E6F742061737369676E65640000000000 PUSH1 0x44 DUP3 ADD MSTORE PUSH1 0x64 SWAP1 REVERT JUMPDEST SWAP1 PUSH1 0x40 MLOAD SWAP2 DUP3 PUSH1 0x0 DUP3 SLOAD SWAP3 PUSH2 0x1CC0 DUP5 PUSH2 0x1A92 JUMP JUMPDEST SWAP1 DUP2 DUP5 MSTORE PUSH1 0x1 SWAP5 DUP6 DUP2 AND SWAP1 DUP2 PUSH1 0x0 EQ PUSH2 0x1D2F JUMPI POP PUSH1 0x1 EQ PUSH2 0x1CEC JUMPI JUMPDEST POP POP PUSH2 0x1CEA SWAP3 POP SUB DUP4 PUSH2 0x1A70 JUMP JUMPDEST JUMP JUMPDEST SWAP1 SWAP4 SWAP2 POP PUSH1 0x0 MSTORE PUSH1 0x20 SWAP1 DUP2 PUSH1 0x0 KECCAK256 SWAP4 PUSH1 0x0 SWAP2 JUMPDEST DUP2 DUP4 LT PUSH2 0x1D17 JUMPI POP POP PUSH2 0x1CEA SWAP4 POP DUP3 ADD ADD CODESIZE DUP1 PUSH2 0x1CDC JUMP JUMPDEST DUP6 SLOAD DUP9 DUP5 ADD DUP6 ADD MSTORE SWAP5 DUP6 ADD SWAP5 DUP8 SWAP5 POP SWAP2 DUP4 ADD SWAP2 PUSH2 0x1CFF JUMP JUMPDEST SWAP2 POP POP PUSH2 0x1CEA SWAP5 POP PUSH1 0x20 SWAP3 POP PUSH1 0xFF NOT AND DUP3 DUP5 ADD MSTORE ISZERO ISZERO PUSH1 0x5 SHL DUP3 ADD ADD CODESIZE DUP1 PUSH2 0x1CDC JUMP JUMPDEST DUP1 ISZERO PUSH2 0x1E7F JUMPI PUSH1 0x0 SWAP1 DUP2 MSTORE PUSH1 0x4 PUSH1 0x20 SWAP1 DUP1 DUP3 MSTORE PUSH1 0x40 SWAP3 DUP4 DUP2 KECCAK256 SWAP3 PUSH1 0x8 SWAP1 DUP2 DUP6 ADD SWAP4 DUP5 SLOAD SWAP4 PUSH1 0xFF SWAP2 DUP3 DUP7 AND SWAP3 PUSH1 0x7 SWAP4 DUP5 DUP2 LT ISZERO PUSH2 0x1E6C JUMPI PUSH1 0x1 SUB PUSH2 0x1E60 JUMPI DUP3 SWAP6 PUSH1 0xE DUP11 ADD SWAP11 DUP12 SLOAD SWAP8 JUMPDEST DUP9 DUP2 LT PUSH2 0x1DBF JUMPI POP POP POP POP POP POP POP POP POP PUSH1 0x3 SWAP2 SWAP3 SWAP4 POP PUSH1 0xFF NOT AND OR SWAP1 SSTORE PUSH1 0xC TIMESTAMP SWAP2 ADD SSTORE JUMP JUMPDEST PUSH2 0x1DC9 DUP2 DUP15 PUSH2 0x1ACC JUMP JUMPDEST SWAP1 SLOAD PUSH1 0x3 SWAP2 DUP3 SHL SHR DUP8 MSTORE DUP6 DUP10 MSTORE DUP5 DUP5 DUP5 DUP10 KECCAK256 ADD SLOAD AND DUP9 DUP2 LT ISZERO SWAP2 DUP3 PUSH2 0x1E4D JUMPI DUP2 EQ ISZERO SWAP2 DUP3 PUSH2 0x1E40 JUMPI JUMPDEST DUP3 PUSH2 0x1E1B JUMPI JUMPDEST POP POP PUSH2 0x1E0C JUMPI PUSH2 0x1E07 SWAP1 PUSH2 0x19E8 JUMP JUMPDEST PUSH2 0x1D9A JUMP JUMPDEST POP POP POP POP POP POP POP POP POP POP POP POP POP JUMP JUMPDEST SWAP1 SWAP2 POP PUSH2 0x1E2D JUMPI PUSH1 0x6 EQ ISZERO CODESIZE DUP1 PUSH2 0x1DF8 JUMP JUMPDEST PUSH4 0x4E487B71 PUSH1 0xE0 SHL DUP8 MSTORE PUSH1 0x21 DUP7 MSTORE PUSH1 0x24 DUP8 REVERT JUMPDEST POP DUP7 DUP2 EQ ISZERO SWAP2 POP DUP8 PUSH2 0x1DF2 JUMP JUMPDEST PUSH4 0x4E487B71 PUSH1 0xE0 SHL DUP10 MSTORE PUSH1 0x21 DUP9 MSTORE PUSH1 0x24 DUP10 REVERT JUMPDEST POP POP POP POP POP POP POP POP POP POP JUMP JUMPDEST PUSH4 0x4E487B71 PUSH1 0xE0 SHL DUP5 MSTORE PUSH1 0x21 DUP4 MSTORE PUSH1 0x24 DUP5 REVERT JUMPDEST POP JUMP JUMPDEST PUSH1 0x0 DUP1 DUP1 DUP1 SWAP5 DUP2 SWAP5 PUSH1 0x1 DUP1 PUSH1 0xA0 SHL SUB AND GAS CALL SWAP1 RETURNDATASIZE ISZERO PUSH2 0x1F19 JUMPI RETURNDATASIZE SWAP1 PUSH8 0xFFFFFFFFFFFFFFFF DUP3 GT PUSH2 0x16ED JUMPI PUSH1 0x40 MLOAD SWAP2 PUSH2 0x1EC4 PUSH1 0x1F DUP3 ADD PUSH1 0x1F NOT AND PUSH1 0x20 ADD DUP5 PUSH2 0x1A70 JUMP JUMPDEST DUP3 MSTORE PUSH1 0x20 RETURNDATASIZE SWAP3 ADD RETURNDATACOPY JUMPDEST ISZERO PUSH2 0x1ED4 JUMPI JUMP JUMPDEST PUSH1 0x40 MLOAD PUSH3 0x461BCD PUSH1 0xE5 SHL DUP2 MSTORE PUSH1 0x20 PUSH1 0x4 DUP3 ADD MSTORE PUSH1 0x1E PUSH1 0x24 DUP3 ADD MSTORE PUSH32 0x4A6F62457363726F773A20455448207472616E73666572206661696C65640000 PUSH1 0x44 DUP3 ADD MSTORE PUSH1 0x64 SWAP1 REVERT JUMPDEST POP PUSH2 0x1ECD JUMP INVALID LOG2 PUSH5 0x6970667358 0x22 SLT KECCAK256 0x29 BLOCKHASH PUSH23 0x5C67D30B2E9BAAE8DDF44F499070D1D3C336F012096EE2 0xC3 0xF7 0x2A PUSH32 0x73D564736F6C6343000814003300000000000000000000000000000000000000 "},"methodIdentifiers":{"DISPUTE_WINDOW()":"f585dc57","acceptBid(bytes32,address,uint256)":"3d8ec981","bid(bytes32,uint256)":"cd772f5c","cancelJob(bytes32)":"5fae1450","escrow(bytes32)":"a7e75032","getBids(bytes32)":"9d4f988b","getJob(bytes32)":"f729cf0d","markFailed(bytes32)":"925ed1a1","owner()":"8da5cb5b","postJob(string,string,uint256,bytes32)":"2017d400","raiseDispute(bytes32)":"e14f5b7d","registry()":"7b103999","releasePayout(bytes32)":"66529888","resolveDispute(bytes32,bool)":"43a0e3e6","submitResult(bytes32,bytes32,string)":"3182c533"}}}}}