{"contracts/CapabilityRegistry.sol":{"CapabilityRegistry":{"abi":[{"inputs":[],"stateMutability":"nonpayable","type":"constructor"},{"anonymous":false,"inputs":[{"indexed":true,"internalType":"address","name":"agent","type":"address"},{"indexed":false,"internalType":"string","name":"name","type":"string"},{"indexed":false,"internalType":"string[]","name":"capabilities","type":"string[]"}],"name":"AgentRegistered","type":"event"},{"anonymous":false,"inputs":[{"indexed":true,"internalType":"address","name":"agent","type":"address"},{"indexed":false,"internalType":"uint256","name":"newScore","type":"uint256"},{"indexed":false,"internalType":"bool","name":"success","type":"bool"},{"indexed":false,"internalType":"uint256","name":"jobValue","type":"uint256"}],"name":"ReputationUpdated","type":"event"},{"inputs":[{"internalType":"uint256","name":"","type":"uint256"}],"name":"agentList","outputs":[{"internalType":"address","name":"","type":"address"}],"stateMutability":"view","type":"function"},{"inputs":[{"internalType":"address","name":"agent","type":"address"}],"name":"getProfile","outputs":[{"components":[{"internalType":"address","name":"agentAddress","type":"address"},{"internalType":"string","name":"name","type":"string"},{"internalType":"string[]","name":"capabilities","type":"string[]"},{"internalType":"uint256","name":"pricePerJob","type":"uint256"},{"internalType":"string","name":"endpoint","type":"string"},{"internalType":"bool","name":"available","type":"bool"},{"internalType":"uint256","name":"registeredAt","type":"uint256"},{"components":[{"internalType":"uint256","name":"score","type":"uint256"},{"internalType":"uint256","name":"totalJobs","type":"uint256"},{"internalType":"uint256","name":"successfulJobs","type":"uint256"},{"internalType":"uint256","name":"weightedSuccesses","type":"uint256"},{"internalType":"uint256","name":"weightedTotal","type":"uint256"}],"internalType":"struct CapabilityRegistry.ReputationRecord","name":"reputation","type":"tuple"}],"internalType":"struct CapabilityRegistry.AgentProfile","name":"","type":"tuple"}],"stateMutability":"view","type":"function"},{"inputs":[],"name":"jobEscrow","outputs":[{"internalType":"address","name":"","type":"address"}],"stateMutability":"view","type":"function"},{"inputs":[{"internalType":"string","name":"capability","type":"string"}],"name":"lookup","outputs":[{"components":[{"internalType":"address","name":"agentAddress","type":"address"},{"internalType":"string","name":"name","type":"string"},{"internalType":"string[]","name":"capabilities","type":"string[]"},{"internalType":"uint256","name":"pricePerJob","type":"uint256"},{"internalType":"string","name":"endpoint","type":"string"},{"internalType":"bool","name":"available","type":"bool"},{"internalType":"uint256","name":"registeredAt","type":"uint256"},{"components":[{"internalType":"uint256","name":"score","type":"uint256"},{"internalType":"uint256","name":"totalJobs","type":"uint256"},{"internalType":"uint256","name":"successfulJobs","type":"uint256"},{"internalType":"uint256","name":"weightedSuccesses","type":"uint256"},{"internalType":"uint256","name":"weightedTotal","type":"uint256"}],"internalType":"struct CapabilityRegistry.ReputationRecord","name":"reputation","type":"tuple"}],"internalType":"struct CapabilityRegistry.AgentProfile[]","name":"","type":"tuple[]"}],"stateMutability":"view","type":"function"},{"inputs":[],"name":"owner","outputs":[{"internalType":"address","name":"","type":"address"}],"stateMutability":"view","type":"function"},{"inputs":[{"internalType":"string","name":"name","type":"string"},{"internalType":"string[]","name":"capabilities","type":"string[]"},{"internalType":"uint256","name":"pricePerJob","type":"uint256"},{"internalType":"string","name":"endpoint","type":"string"}],"name":"register","outputs":[],"stateMutability":"nonpayable","type":"function"},{"inputs":[{"internalType":"bool","name":"available","type":"bool"}],"name":"setAvailable","outputs":[],"stateMutability":"nonpayable","type":"function"},{"inputs":[{"internalType":"address","name":"_jobEscrow","type":"address"}],"name":"setJobEscrow","outputs":[],"stateMutability":"nonpayable","type":"function"},{"inputs":[{"internalType":"address","name":"agent","type":"address"},{"internalType":"bool","name":"success","type":"bool"},{"internalType":"uint256","name":"jobValue","type":"uint256"}],"name":"updateReputation","outputs":[],"stateMutability":"nonpayable","type":"function"}],"evm":{"bytecode":{"linkReferences":{},"object":"6080806040523461002857600080546001600160a01b0319163317905561134b908161002e8239f35b600080fdfe6080604052600436101561001257600080fd5b60003560e01c80630f53a47014610d695780632f80c54f14610d27578063484cddd014610c4c5780638414682e146105c25780638da5cb5b14610599578063b0d83db814610570578063e2df20d1146104c8578063f67187ac146102755763ff370a401461007f57600080fd5b3461027057606036600319011261027057610098610dc3565b602435908115159182810361027057600154604435926001600160a01b03918216330361021757169283600052600460205260ff60406000205416156101c157836000526003602052604060002092600884016100f58154611050565b9055600b8401926101078285546112ad565b80945561019b575b600a8401549160648302928084046064149015171561018557831561016f577f01e925c088f0b9a5559a984986855e6a6ac29f0dede815ca77a0fb6aecf3b7a79460609460079404938491015560405192835260208301526040820152a2005b634e487b7160e01b600052601260045260246000fd5b634e487b7160e01b600052601160045260246000fd5b600984016101a98154611050565b9055600a84016101ba8282546112ad565b905561010f565b60405162461bcd60e51b815260206004820152602860248201527f4361706162696c69747952656769737472793a206167656e74206e6f7420726560448201526719da5cdd195c995960c21b6064820152608490fd5b60405162461bcd60e51b815260206004820152602b60248201527f4361706162696c69747952656769737472793a2063616c6c6572206973206e6f60448201526a74204a6f62457363726f7760a81b6064820152608490fd5b600080fd5b3461027057602080600319360112610270576001600160401b03600435818111610270576102a7903690600401610f59565b9182116104b257604051601f19926102c6601f8201851686018361102f565b80825284820192368282011161027057816000928792863783010152519020906000916000916002908154935b84811061043b575061031d6103078661105f565b95610315604051978861102f565b80875261105f565b018560005b8281106104255750505060009060005b84811061039757604080518881528751818a01819052600092600582901b83018101918a8c01918c9085015b82871061036b5785850386f35b909192938280610387600193603f198a82030186528851610e19565b960192019601959291909261035e565b6103a081610f0c565b9054600391821b1c6001600160a01b0316600090815290885260409020600581015460ff1680610413575b6103df575b506103da90611050565b610332565b929061040c826103fb6103f56103da9592611050565b96611188565b610405828b6110de565b52886110de565b50906103d0565b50610420858483016112ba565b6103cb565b61042d611076565b828289010152018690610322565b61044481610f0c565b9054600391821b1c6001600160a01b0316600090815290885260409020600581015460ff1690859085908361049f575b50505061048a575b61048590611050565b6102f3565b9461049761048591611050565b95905061047c565b6104aa9350016112ba565b84848a610474565b634e487b7160e01b600052604160045260246000fd5b34610270576020366003190112610270576004358015158091036102705733600052600460205260ff60406000205416156105205733600052600360205260056040600020019060ff80198354169116179055600080f35b60405162461bcd60e51b815260206004820152602260248201527f4361706162696c69747952656769737472793a206e6f74207265676973746572604482015261195960f21b6064820152608490fd5b34610270576000366003190112610270576001546040516001600160a01b039091168152602090f35b34610270576000366003190112610270576000546040516001600160a01b039091168152602090f35b34610270576080366003190112610270576004356001600160401b038111610270576105f2903690600401610f59565b906001600160401b036024351161027057366023602435011215610270576001600160401b0360243560040135116102705736602480356004013560051b8135010111610270576064356001600160401b03811161027057610658903690600401610f59565b91909133600052600360205260406000209060046020526040600020805460ff811615610bfb575b505081546001600160a01b031916331782556001600160401b0385116104b2576106ad6001830154610f86565b601f8111610bc6575b50846000601f8211600114610b5857600091610b4d575b508560011b906000198760031b1c19161760018301555b600160401b60243560040135116104b2576002820180546004602435013591829055908111610acf575b5060248035019384600284016000526020600020906000905b6024356004013582106109415750505060443560038401556001600160401b0382116104b25761075a6004840154610f86565b601f8111610901575b50600090601f831160011461088a5791806107bb95949260059460009261087f575b50508160011b916000199060031b1c19161760048201555b01600160ff1982541617905560405193604085526040850191610fd7565b918083036020820152602435600401358352602083019260206024356004013560051b820101929060005b60243560040135811061081c57337fcf566b9feaf421c1c6768eee5bcd85d968c5ec9b78a6e1db58d90005717b61bc85870386a2005b909193601f198382030186528435604219602435360301811215610270576024350190604460248301359201916001600160401b038111610270578036038313610270576108706020928392600195610fd7565b960196019101949190946107e6565b013590508880610785565b6004840160005260206000209160005b601f19851681106108e95750926107bb95949260019260059583601f198116106108cf575b505050811b01600482015561079d565b0135600019600384901b60f8161c191690558880806108bf565b9092602060018192868601358155019401910161089a565b61093190600485016000526020600020601f850160051c81019160208610610937575b601f0160051c0190610fc0565b86610763565b9091508190610924565b8035602435360360421901811215610270576001600160401b036024828135010135116102705760248181350101353603604482602435010113610270576109898454610f86565b601f8111610a96575b506000601f6024838135010135116001146109fe57600192839260209260009060248381350101356109ec575b506024828135010135851b91602460001991813501013560031b1c19161786555b01930191019091610727565b6044915082602435010101358e6109bf565b8460005260206000209060005b6024803585010135601f19168110610a7757506001938493602093919285926024929183358301840135601f19811610610a51575b50508135010135811b0186556109e0565b604460001960f88686813501013560031b161c1991848635010101351690558f80610a40565b9091602060018192604486886024350101013581550193019101610a0b565b6000858152602090819020610ac9926024803586010135601f810160051c8301931161093757601f0160051c0190610fc0565b8a610992565b600283016000526020600020906024356004013582015b8183018110610af657505061070e565b80610b0360019254610f86565b80610b10575b5001610ae6565b601f81118314610b265750600081555b89610b09565b600090828252610b44601f60208420920160051c8201858301610fc0565b81835555610b20565b9050830135866106cd565b90506001830160005260206000209060005b601f1988168110610bae575086601f19811610610b94575b5050600185811b0160018301556106e4565b840135600019600388901b60f8161c191690558580610b82565b90916020600181928589013581550193019101610b6a565b610bf590600184016000526020600020601f880160051c8101916020891061093757601f0160051c0190610fc0565b856106b6565b60ff19166001179055600254600160401b8110156104b257806001610c239201600255610f0c565b81546001600160a01b0360039290921b91821b19163390911b1790554260068301558580610680565b3461027057602036600319011261027057610c65610dc3565b6000546001600160a01b03919082163303610ce257168015610c9e576bffffffffffffffffffffffff60a01b6001541617600155600080f35b606460405162461bcd60e51b815260206004820152602060248201527f4361706162696c69747952656769737472793a207a65726f20616464726573736044820152fd5b60405162461bcd60e51b815260206004820152601d60248201527f4361706162696c69747952656769737472793a206e6f74206f776e65720000006044820152606490fd5b346102705760203660031901126102705760043560025481101561027057610d50602091610f0c565b905460405160039290921b1c6001600160a01b03168152f35b3461027057602036600319011261027057610d82610dc3565b610d8a611076565b5060018060a01b03166000526003602052610dbf610dab6040600020611188565b604051918291602083526020830190610e19565b0390f35b600435906001600160a01b038216820361027057565b919082519283825260005b848110610e05575050826000602080949584010152601f8019910116010190565b602081830181015184830182015201610de4565b9060018060a01b0382511681526020610e3f818401516101808084860152840190610dd9565b604084015190838103604085015281518082528382019184808360051b8301019401926000915b838310610ee05750505050506101609160e0610e98608093606088015160608801528488015187820386890152610dd9565b9560a0810151151560a087015260c081015160c0870152015190815160e086015281015161010085015260408101516101208501526060810151610140850152015191015290565b90919293948680610efd600193601f198682030187528951610dd9565b97019301930191939290610e66565b600254811015610f435760026000527f405787fa12a823e0f2b7631cc41b3ba8828b3321ca811111fa75cd3aa3bb5ace0190600090565b634e487b7160e01b600052603260045260246000fd5b9181601f84011215610270578235916001600160401b038311610270576020838186019501011161027057565b90600182811c92168015610fb6575b6020831014610fa057565b634e487b7160e01b600052602260045260246000fd5b91607f1691610f95565b818110610fcb575050565b60008155600101610fc0565b908060209392818452848401376000828201840152601f01601f1916010190565b61010081019081106001600160401b038211176104b257604052565b60a081019081106001600160401b038211176104b257604052565b90601f801991011681019081106001600160401b038211176104b257604052565b60001981146101855760010190565b6001600160401b0381116104b25760051b60200190565b6040519061108382610ff8565b8160e06000918281526060602082015260606040820152826060820152606060808201528260a08201528260c0820152604051926110c084611014565b80845280602085015280604085015280606085015260808401520152565b8051821015610f435760209160051b010190565b906000929180549161110383610f86565b9182825260019384811690816000146111655750600114611125575b50505050565b90919394506000526020928360002092846000945b83861061115157505050500101903880808061111f565b80548587018301529401938590820161113a565b9294505050602093945060ff191683830152151560051b0101903880808061111f565b906040805161119681610ff8565b809360018060a01b03815416825282519260016111c0856111b9818487016110f2565b038661102f565b60209485850152600283019081546111d78161105f565b926111e48551948561102f565b8184526000908152878120888086015b8484106112895750505050505091818493600b9360e09601526003820154606085015280516112318161122a81600487016110f2565b038261102f565b608085015260ff600583015416151560a0850152600682015460c085015280519561125b87611014565b60078301548752600883015490870152600982015490860152600a8101546060860152015460808401520152565b85918291895161129d8161122a81896110f2565b81520192019201919089906111f4565b9190820180921161018557565b9060005b825481101561130d5782600052816112e660206112ed848260002001604051938480926110f2565b038361102f565b8151910120146113055761130090611050565b6112be565b505050600190565b50505060009056fea2646970667358221220baa05de79221d10b277ba811d42a9afef41455ff45b3280f30bc44e7aae5102a64736f6c63430008140033","opcodes":"PUSH1 0x80 DUP1 PUSH1 0x40 MSTORE CALLVALUE PUSH2 0x28 JUMPI PUSH1 0x0 DUP1 SLOAD PUSH1 0x1 PUSH1 0x1 PUSH1 0xA0 SHL SUB NOT AND CALLER OR SWAP1 SSTORE PUSH2 0x134B SWAP1 DUP2 PUSH2 0x2E DUP3 CODECOPY RETURN JUMPDEST PUSH1 0x0 DUP1 REVERT INVALID PUSH1 0x80 PUSH1 0x40 MSTORE PUSH1 0x4 CALLDATASIZE LT ISZERO PUSH2 0x12 JUMPI PUSH1 0x0 DUP1 REVERT JUMPDEST PUSH1 0x0 CALLDATALOAD PUSH1 0xE0 SHR DUP1 PUSH4 0xF53A470 EQ PUSH2 0xD69 JUMPI DUP1 PUSH4 0x2F80C54F EQ PUSH2 0xD27 JUMPI DUP1 PUSH4 0x484CDDD0 EQ PUSH2 0xC4C JUMPI DUP1 PUSH4 0x8414682E EQ PUSH2 0x5C2 JUMPI DUP1 PUSH4 0x8DA5CB5B EQ PUSH2 0x599 JUMPI DUP1 PUSH4 0xB0D83DB8 EQ PUSH2 0x570 JUMPI DUP1 PUSH4 0xE2DF20D1 EQ PUSH2 0x4C8 JUMPI DUP1 PUSH4 0xF67187AC EQ PUSH2 0x275 JUMPI PUSH4 0xFF370A40 EQ PUSH2 0x7F JUMPI PUSH1 0x0 DUP1 REVERT JUMPDEST CALLVALUE PUSH2 0x270 JUMPI PUSH1 0x60 CALLDATASIZE PUSH1 0x3 NOT ADD SLT PUSH2 0x270 JUMPI PUSH2 0x98 PUSH2 0xDC3 JUMP JUMPDEST PUSH1 0x24 CALLDATALOAD SWAP1 DUP2 ISZERO ISZERO SWAP2 DUP3 DUP2 SUB PUSH2 0x270 JUMPI PUSH1 0x1 SLOAD PUSH1 0x44 CALLDATALOAD SWAP3 PUSH1 0x1 PUSH1 0x1 PUSH1 0xA0 SHL SUB SWAP2 DUP3 AND CALLER SUB PUSH2 0x217 JUMPI AND SWAP3 DUP4 PUSH1 0x0 MSTORE PUSH1 0x4 PUSH1 0x20 MSTORE PUSH1 0xFF PUSH1 0x40 PUSH1 0x0 KECCAK256 SLOAD AND ISZERO PUSH2 0x1C1 JUMPI DUP4 PUSH1 0x0 MSTORE PUSH1 0x3 PUSH1 0x20 MSTORE PUSH1 0x40 PUSH1 0x0 KECCAK256 SWAP3 PUSH1 0x8 DUP5 ADD PUSH2 0xF5 DUP2 SLOAD PUSH2 0x1050 JUMP JUMPDEST SWAP1 SSTORE PUSH1 0xB DUP5 ADD SWAP3 PUSH2 0x107 DUP3 DUP6 SLOAD PUSH2 0x12AD JUMP JUMPDEST DUP1 SWAP5 SSTORE PUSH2 0x19B JUMPI JUMPDEST PUSH1 0xA DUP5 ADD SLOAD SWAP2 PUSH1 0x64 DUP4 MUL SWAP3 DUP1 DUP5 DIV PUSH1 0x64 EQ SWAP1 ISZERO OR ISZERO PUSH2 0x185 JUMPI DUP4 ISZERO PUSH2 0x16F JUMPI PUSH32 0x1E925C088F0B9A5559A984986855E6A6AC29F0DEDE815CA77A0FB6AECF3B7A7 SWAP5 PUSH1 0x60 SWAP5 PUSH1 0x7 SWAP5 DIV SWAP4 DUP5 SWAP2 ADD SSTORE PUSH1 0x40 MLOAD SWAP3 DUP4 MSTORE PUSH1 0x20 DUP4 ADD MSTORE PUSH1 0x40 DUP3 ADD MSTORE LOG2 STOP JUMPDEST PUSH4 0x4E487B71 PUSH1 0xE0 SHL PUSH1 0x0 MSTORE PUSH1 0x12 PUSH1 0x4 MSTORE PUSH1 0x24 PUSH1 0x0 REVERT JUMPDEST PUSH4 0x4E487B71 PUSH1 0xE0 SHL PUSH1 0x0 MSTORE PUSH1 0x11 PUSH1 0x4 MSTORE PUSH1 0x24 PUSH1 0x0 REVERT JUMPDEST PUSH1 0x9 DUP5 ADD PUSH2 0x1A9 DUP2 SLOAD PUSH2 0x1050 JUMP JUMPDEST SWAP1 SSTORE PUSH1 0xA DUP5 ADD PUSH2 0x1BA DUP3 DUP3 SLOAD PUSH2 0x12AD JUMP JUMPDEST SWAP1 SSTORE PUSH2 0x10F JUMP JUMPDEST PUSH1 0x40 MLOAD PUSH3 0x461BCD PUSH1 0xE5 SHL DUP2 MSTORE PUSH1 0x20 PUSH1 0x4 DUP3 ADD MSTORE PUSH1 0x28 PUSH1 0x24 DUP3 ADD MSTORE PUSH32 0x4361706162696C69747952656769737472793A206167656E74206E6F74207265 PUSH1 0x44 DUP3 ADD MSTORE PUSH8 0x19DA5CDD195C9959 PUSH1 0xC2 SHL PUSH1 0x64 DUP3 ADD MSTORE PUSH1 0x84 SWAP1 REVERT JUMPDEST PUSH1 0x40 MLOAD PUSH3 0x461BCD PUSH1 0xE5 SHL DUP2 MSTORE PUSH1 0x20 PUSH1 0x4 DUP3 ADD MSTORE PUSH1 0x2B PUSH1 0x24 DUP3 ADD MSTORE PUSH32 0x4361706162696C69747952656769737472793A2063616C6C6572206973206E6F PUSH1 0x44 DUP3 ADD MSTORE PUSH11 0x74204A6F62457363726F77 PUSH1 0xA8 SHL PUSH1 0x64 DUP3 ADD MSTORE PUSH1 0x84 SWAP1 REVERT JUMPDEST PUSH1 0x0 DUP1 REVERT JUMPDEST CALLVALUE PUSH2 0x270 JUMPI PUSH1 0x20 DUP1 PUSH1 0x3 NOT CALLDATASIZE ADD SLT PUSH2 0x270 JUMPI PUSH1 0x1 PUSH1 0x1 PUSH1 0x40 SHL SUB PUSH1 0x4 CALLDATALOAD DUP2 DUP2 GT PUSH2 0x270 JUMPI PUSH2 0x2A7 SWAP1 CALLDATASIZE SWAP1 PUSH1 0x4 ADD PUSH2 0xF59 JUMP JUMPDEST SWAP2 DUP3 GT PUSH2 0x4B2 JUMPI PUSH1 0x40 MLOAD PUSH1 0x1F NOT SWAP3 PUSH2 0x2C6 PUSH1 0x1F DUP3 ADD DUP6 AND DUP7 ADD DUP4 PUSH2 0x102F JUMP JUMPDEST DUP1 DUP3 MSTORE DUP5 DUP3 ADD SWAP3 CALLDATASIZE DUP3 DUP3 ADD GT PUSH2 0x270 JUMPI DUP2 PUSH1 0x0 SWAP3 DUP8 SWAP3 DUP7 CALLDATACOPY DUP4 ADD ADD MSTORE MLOAD SWAP1 KECCAK256 SWAP1 PUSH1 0x0 SWAP2 PUSH1 0x0 SWAP2 PUSH1 0x2 SWAP1 DUP2 SLOAD SWAP4 JUMPDEST DUP5 DUP2 LT PUSH2 0x43B JUMPI POP PUSH2 0x31D PUSH2 0x307 DUP7 PUSH2 0x105F JUMP JUMPDEST SWAP6 PUSH2 0x315 PUSH1 0x40 MLOAD SWAP8 DUP9 PUSH2 0x102F JUMP JUMPDEST DUP1 DUP8 MSTORE PUSH2 0x105F JUMP JUMPDEST ADD DUP6 PUSH1 0x0 JUMPDEST DUP3 DUP2 LT PUSH2 0x425 JUMPI POP POP POP PUSH1 0x0 SWAP1 PUSH1 0x0 JUMPDEST DUP5 DUP2 LT PUSH2 0x397 JUMPI PUSH1 0x40 DUP1 MLOAD DUP9 DUP2 MSTORE DUP8 MLOAD DUP2 DUP11 ADD DUP2 SWAP1 MSTORE PUSH1 0x0 SWAP3 PUSH1 0x5 DUP3 SWAP1 SHL DUP4 ADD DUP2 ADD SWAP2 DUP11 DUP13 ADD SWAP2 DUP13 SWAP1 DUP6 ADD JUMPDEST DUP3 DUP8 LT PUSH2 0x36B JUMPI DUP6 DUP6 SUB DUP7 RETURN JUMPDEST SWAP1 SWAP2 SWAP3 SWAP4 DUP3 DUP1 PUSH2 0x387 PUSH1 0x1 SWAP4 PUSH1 0x3F NOT DUP11 DUP3 SUB ADD DUP7 MSTORE DUP9 MLOAD PUSH2 0xE19 JUMP JUMPDEST SWAP7 ADD SWAP3 ADD SWAP7 ADD SWAP6 SWAP3 SWAP2 SWAP1 SWAP3 PUSH2 0x35E JUMP JUMPDEST PUSH2 0x3A0 DUP2 PUSH2 0xF0C JUMP JUMPDEST SWAP1 SLOAD PUSH1 0x3 SWAP2 DUP3 SHL SHR PUSH1 0x1 PUSH1 0x1 PUSH1 0xA0 SHL SUB AND PUSH1 0x0 SWAP1 DUP2 MSTORE SWAP1 DUP9 MSTORE PUSH1 0x40 SWAP1 KECCAK256 PUSH1 0x5 DUP2 ADD SLOAD PUSH1 0xFF AND DUP1 PUSH2 0x413 JUMPI JUMPDEST PUSH2 0x3DF JUMPI JUMPDEST POP PUSH2 0x3DA SWAP1 PUSH2 0x1050 JUMP JUMPDEST PUSH2 0x332 JUMP JUMPDEST SWAP3 SWAP1 PUSH2 0x40C DUP3 PUSH2 0x3FB PUSH2 0x3F5 PUSH2 0x3DA SWAP6 SWAP3 PUSH2 0x1050 JUMP JUMPDEST SWAP7 PUSH2 0x1188 JUMP JUMPDEST PUSH2 0x405 DUP3 DUP12 PUSH2 0x10DE JUMP JUMPDEST MSTORE DUP9 PUSH2 0x10DE JUMP JUMPDEST POP SWAP1 PUSH2 0x3D0 JUMP JUMPDEST POP PUSH2 0x420 DUP6 DUP5 DUP4 ADD PUSH2 0x12BA JUMP JUMPDEST PUSH2 0x3CB JUMP JUMPDEST PUSH2 0x42D PUSH2 0x1076 JUMP JUMPDEST DUP3 DUP3 DUP10 ADD ADD MSTORE ADD DUP7 SWAP1 PUSH2 0x322 JUMP JUMPDEST PUSH2 0x444 DUP2 PUSH2 0xF0C JUMP JUMPDEST SWAP1 SLOAD PUSH1 0x3 SWAP2 DUP3 SHL SHR PUSH1 0x1 PUSH1 0x1 PUSH1 0xA0 SHL SUB AND PUSH1 0x0 SWAP1 DUP2 MSTORE SWAP1 DUP9 MSTORE PUSH1 0x40 SWAP1 KECCAK256 PUSH1 0x5 DUP2 ADD SLOAD PUSH1 0xFF AND SWAP1 DUP6 SWAP1 DUP6 SWAP1 DUP4 PUSH2 0x49F JUMPI JUMPDEST POP POP POP PUSH2 0x48A JUMPI JUMPDEST PUSH2 0x485 SWAP1 PUSH2 0x1050 JUMP JUMPDEST PUSH2 0x2F3 JUMP JUMPDEST SWAP5 PUSH2 0x497 PUSH2 0x485 SWAP2 PUSH2 0x1050 JUMP JUMPDEST SWAP6 SWAP1 POP PUSH2 0x47C JUMP JUMPDEST PUSH2 0x4AA SWAP4 POP ADD PUSH2 0x12BA JUMP JUMPDEST DUP5 DUP5 DUP11 PUSH2 0x474 JUMP JUMPDEST PUSH4 0x4E487B71 PUSH1 0xE0 SHL PUSH1 0x0 MSTORE PUSH1 0x41 PUSH1 0x4 MSTORE PUSH1 0x24 PUSH1 0x0 REVERT JUMPDEST CALLVALUE PUSH2 0x270 JUMPI PUSH1 0x20 CALLDATASIZE PUSH1 0x3 NOT ADD SLT PUSH2 0x270 JUMPI PUSH1 0x4 CALLDATALOAD DUP1 ISZERO ISZERO DUP1 SWAP2 SUB PUSH2 0x270 JUMPI CALLER PUSH1 0x0 MSTORE PUSH1 0x4 PUSH1 0x20 MSTORE PUSH1 0xFF PUSH1 0x40 PUSH1 0x0 KECCAK256 SLOAD AND ISZERO PUSH2 0x520 JUMPI CALLER PUSH1 0x0 MSTORE PUSH1 0x3 PUSH1 0x20 MSTORE PUSH1 0x5 PUSH1 0x40 PUSH1 0x0 KECCAK256 ADD SWAP1 PUSH1 0xFF DUP1 NOT DUP4 SLOAD AND SWAP2 AND OR SWAP1 SSTORE PUSH1 0x0 DUP1 RETURN JUMPDEST PUSH1 0x40 MLOAD PUSH3 0x461BCD PUSH1 0xE5 SHL DUP2 MSTORE PUSH1 0x20 PUSH1 0x4 DUP3 ADD MSTORE PUSH1 0x22 PUSH1 0x24 DUP3 ADD MSTORE PUSH32 0x4361706162696C69747952656769737472793A206E6F74207265676973746572 PUSH1 0x44 DUP3 ADD MSTORE PUSH2 0x1959 PUSH1 0xF2 SHL PUSH1 0x64 DUP3 ADD MSTORE PUSH1 0x84 SWAP1 REVERT JUMPDEST CALLVALUE PUSH2 0x270 JUMPI PUSH1 0x0 CALLDATASIZE PUSH1 0x3 NOT ADD SLT PUSH2 0x270 JUMPI PUSH1 0x1 SLOAD PUSH1 0x40 MLOAD PUSH1 0x1 PUSH1 0x1 PUSH1 0xA0 SHL SUB SWAP1 SWAP2 AND DUP2 MSTORE PUSH1 0x20 SWAP1 RETURN JUMPDEST CALLVALUE PUSH2 0x270 JUMPI PUSH1 0x0 CALLDATASIZE PUSH1 0x3 NOT ADD SLT PUSH2 0x270 JUMPI PUSH1 0x0 SLOAD PUSH1 0x40 MLOAD PUSH1 0x1 PUSH1 0x1 PUSH1 0xA0 SHL SUB SWAP1 SWAP2 AND DUP2 MSTORE PUSH1 0x20 SWAP1 RETURN JUMPDEST CALLVALUE PUSH2 0x270 JUMPI PUSH1 0x80 CALLDATASIZE PUSH1 0x3 NOT ADD SLT PUSH2 0x270 JUMPI PUSH1 0x4 CALLDATALOAD PUSH1 0x1 PUSH1 0x1 PUSH1 0x40 SHL SUB DUP2 GT PUSH2 0x270 JUMPI PUSH2 0x5F2 SWAP1 CALLDATASIZE SWAP1 PUSH1 0x4 ADD PUSH2 0xF59 JUMP JUMPDEST SWAP1 PUSH1 0x1 PUSH1 0x1 PUSH1 0x40 SHL SUB PUSH1 0x24 CALLDATALOAD GT PUSH2 0x270 JUMPI CALLDATASIZE PUSH1 0x23 PUSH1 0x24 CALLDATALOAD ADD SLT ISZERO PUSH2 0x270 JUMPI PUSH1 0x1 PUSH1 0x1 PUSH1 0x40 SHL SUB PUSH1 0x24 CALLDATALOAD PUSH1 0x4 ADD CALLDATALOAD GT PUSH2 0x270 JUMPI CALLDATASIZE PUSH1 0x24 DUP1 CALLDATALOAD PUSH1 0x4 ADD CALLDATALOAD PUSH1 0x5 SHL DUP2 CALLDATALOAD ADD ADD GT PUSH2 0x270 JUMPI PUSH1 0x64 CALLDATALOAD PUSH1 0x1 PUSH1 0x1 PUSH1 0x40 SHL SUB DUP2 GT PUSH2 0x270 JUMPI PUSH2 0x658 SWAP1 CALLDATASIZE SWAP1 PUSH1 0x4 ADD PUSH2 0xF59 JUMP JUMPDEST SWAP2 SWAP1 SWAP2 CALLER PUSH1 0x0 MSTORE PUSH1 0x3 PUSH1 0x20 MSTORE PUSH1 0x40 PUSH1 0x0 KECCAK256 SWAP1 PUSH1 0x4 PUSH1 0x20 MSTORE PUSH1 0x40 PUSH1 0x0 KECCAK256 DUP1 SLOAD PUSH1 0xFF DUP2 AND ISZERO PUSH2 0xBFB JUMPI JUMPDEST POP POP DUP2 SLOAD PUSH1 0x1 PUSH1 0x1 PUSH1 0xA0 SHL SUB NOT AND CALLER OR DUP3 SSTORE PUSH1 0x1 PUSH1 0x1 PUSH1 0x40 SHL SUB DUP6 GT PUSH2 0x4B2 JUMPI PUSH2 0x6AD PUSH1 0x1 DUP4 ADD SLOAD PUSH2 0xF86 JUMP JUMPDEST PUSH1 0x1F DUP2 GT PUSH2 0xBC6 JUMPI JUMPDEST POP DUP5 PUSH1 0x0 PUSH1 0x1F DUP3 GT PUSH1 0x1 EQ PUSH2 0xB58 JUMPI PUSH1 0x0 SWAP2 PUSH2 0xB4D JUMPI JUMPDEST POP DUP6 PUSH1 0x1 SHL SWAP1 PUSH1 0x0 NOT DUP8 PUSH1 0x3 SHL SHR NOT AND OR PUSH1 0x1 DUP4 ADD SSTORE JUMPDEST PUSH1 0x1 PUSH1 0x40 SHL PUSH1 0x24 CALLDATALOAD PUSH1 0x4 ADD CALLDATALOAD GT PUSH2 0x4B2 JUMPI PUSH1 0x2 DUP3 ADD DUP1 SLOAD PUSH1 0x4 PUSH1 0x24 CALLDATALOAD ADD CALLDATALOAD SWAP2 DUP3 SWAP1 SSTORE SWAP1 DUP2 GT PUSH2 0xACF JUMPI JUMPDEST POP PUSH1 0x24 DUP1 CALLDATALOAD ADD SWAP4 DUP5 PUSH1 0x2 DUP5 ADD PUSH1 0x0 MSTORE PUSH1 0x20 PUSH1 0x0 KECCAK256 SWAP1 PUSH1 0x0 SWAP1 JUMPDEST PUSH1 0x24 CALLDATALOAD PUSH1 0x4 ADD CALLDATALOAD DUP3 LT PUSH2 0x941 JUMPI POP POP POP PUSH1 0x44 CALLDATALOAD PUSH1 0x3 DUP5 ADD SSTORE PUSH1 0x1 PUSH1 0x1 PUSH1 0x40 SHL SUB DUP3 GT PUSH2 0x4B2 JUMPI PUSH2 0x75A PUSH1 0x4 DUP5 ADD SLOAD PUSH2 0xF86 JUMP JUMPDEST PUSH1 0x1F DUP2 GT PUSH2 0x901 JUMPI JUMPDEST POP PUSH1 0x0 SWAP1 PUSH1 0x1F DUP4 GT PUSH1 0x1 EQ PUSH2 0x88A JUMPI SWAP2 DUP1 PUSH2 0x7BB SWAP6 SWAP5 SWAP3 PUSH1 0x5 SWAP5 PUSH1 0x0 SWAP3 PUSH2 0x87F JUMPI JUMPDEST POP POP DUP2 PUSH1 0x1 SHL SWAP2 PUSH1 0x0 NOT SWAP1 PUSH1 0x3 SHL SHR NOT AND OR PUSH1 0x4 DUP3 ADD SSTORE JUMPDEST ADD PUSH1 0x1 PUSH1 0xFF NOT DUP3 SLOAD AND OR SWAP1 SSTORE PUSH1 0x40 MLOAD SWAP4 PUSH1 0x40 DUP6 MSTORE PUSH1 0x40 DUP6 ADD SWAP2 PUSH2 0xFD7 JUMP JUMPDEST SWAP2 DUP1 DUP4 SUB PUSH1 0x20 DUP3 ADD MSTORE PUSH1 0x24 CALLDATALOAD PUSH1 0x4 ADD CALLDATALOAD DUP4 MSTORE PUSH1 0x20 DUP4 ADD SWAP3 PUSH1 0x20 PUSH1 0x24 CALLDATALOAD PUSH1 0x4 ADD CALLDATALOAD PUSH1 0x5 SHL DUP3 ADD ADD SWAP3 SWAP1 PUSH1 0x0 JUMPDEST PUSH1 0x24 CALLDATALOAD PUSH1 0x4 ADD CALLDATALOAD DUP2 LT PUSH2 0x81C JUMPI CALLER PUSH32 0xCF566B9FEAF421C1C6768EEE5BCD85D968C5EC9B78A6E1DB58D90005717B61BC DUP6 DUP8 SUB DUP7 LOG2 STOP JUMPDEST SWAP1 SWAP2 SWAP4 PUSH1 0x1F NOT DUP4 DUP3 SUB ADD DUP7 MSTORE DUP5 CALLDATALOAD PUSH1 0x42 NOT PUSH1 0x24 CALLDATALOAD CALLDATASIZE SUB ADD DUP2 SLT ISZERO PUSH2 0x270 JUMPI PUSH1 0x24 CALLDATALOAD ADD SWAP1 PUSH1 0x44 PUSH1 0x24 DUP4 ADD CALLDATALOAD SWAP3 ADD SWAP2 PUSH1 0x1 PUSH1 0x1 PUSH1 0x40 SHL SUB DUP2 GT PUSH2 0x270 JUMPI DUP1 CALLDATASIZE SUB DUP4 SGT PUSH2 0x270 JUMPI PUSH2 0x870 PUSH1 0x20 SWAP3 DUP4 SWAP3 PUSH1 0x1 SWAP6 PUSH2 0xFD7 JUMP JUMPDEST SWAP7 ADD SWAP7 ADD SWAP2 ADD SWAP5 SWAP2 SWAP1 SWAP5 PUSH2 0x7E6 JUMP JUMPDEST ADD CALLDATALOAD SWAP1 POP DUP9 DUP1 PUSH2 0x785 JUMP JUMPDEST PUSH1 0x4 DUP5 ADD PUSH1 0x0 MSTORE PUSH1 0x20 PUSH1 0x0 KECCAK256 SWAP2 PUSH1 0x0 JUMPDEST PUSH1 0x1F NOT DUP6 AND DUP2 LT PUSH2 0x8E9 JUMPI POP SWAP3 PUSH2 0x7BB SWAP6 SWAP5 SWAP3 PUSH1 0x1 SWAP3 PUSH1 0x5 SWAP6 DUP4 PUSH1 0x1F NOT DUP2 AND LT PUSH2 0x8CF JUMPI JUMPDEST POP POP POP DUP2 SHL ADD PUSH1 0x4 DUP3 ADD SSTORE PUSH2 0x79D JUMP JUMPDEST ADD CALLDATALOAD PUSH1 0x0 NOT PUSH1 0x3 DUP5 SWAP1 SHL PUSH1 0xF8 AND SHR NOT AND SWAP1 SSTORE DUP9 DUP1 DUP1 PUSH2 0x8BF JUMP JUMPDEST SWAP1 SWAP3 PUSH1 0x20 PUSH1 0x1 DUP2 SWAP3 DUP7 DUP7 ADD CALLDATALOAD DUP2 SSTORE ADD SWAP5 ADD SWAP2 ADD PUSH2 0x89A JUMP JUMPDEST PUSH2 0x931 SWAP1 PUSH1 0x4 DUP6 ADD PUSH1 0x0 MSTORE PUSH1 0x20 PUSH1 0x0 KECCAK256 PUSH1 0x1F DUP6 ADD PUSH1 0x5 SHR DUP2 ADD SWAP2 PUSH1 0x20 DUP7 LT PUSH2 0x937 JUMPI JUMPDEST PUSH1 0x1F ADD PUSH1 0x5 SHR ADD SWAP1 PUSH2 0xFC0 JUMP JUMPDEST DUP7 PUSH2 0x763 JUMP JUMPDEST SWAP1 SWAP2 POP DUP2 SWAP1 PUSH2 0x924 JUMP JUMPDEST DUP1 CALLDATALOAD PUSH1 0x24 CALLDATALOAD CALLDATASIZE SUB PUSH1 0x42 NOT ADD DUP2 SLT ISZERO PUSH2 0x270 JUMPI PUSH1 0x1 PUSH1 0x1 PUSH1 0x40 SHL SUB PUSH1 0x24 DUP3 DUP2 CALLDATALOAD ADD ADD CALLDATALOAD GT PUSH2 0x270 JUMPI PUSH1 0x24 DUP2 DUP2 CALLDATALOAD ADD ADD CALLDATALOAD CALLDATASIZE SUB PUSH1 0x44 DUP3 PUSH1 0x24 CALLDATALOAD ADD ADD SGT PUSH2 0x270 JUMPI PUSH2 0x989 DUP5 SLOAD PUSH2 0xF86 JUMP JUMPDEST PUSH1 0x1F DUP2 GT PUSH2 0xA96 JUMPI JUMPDEST POP PUSH1 0x0 PUSH1 0x1F PUSH1 0x24 DUP4 DUP2 CALLDATALOAD ADD ADD CALLDATALOAD GT PUSH1 0x1 EQ PUSH2 0x9FE JUMPI PUSH1 0x1 SWAP3 DUP4 SWAP3 PUSH1 0x20 SWAP3 PUSH1 0x0 SWAP1 PUSH1 0x24 DUP4 DUP2 CALLDATALOAD ADD ADD CALLDATALOAD PUSH2 0x9EC JUMPI JUMPDEST POP PUSH1 0x24 DUP3 DUP2 CALLDATALOAD ADD ADD CALLDATALOAD DUP6 SHL SWAP2 PUSH1 0x24 PUSH1 0x0 NOT SWAP2 DUP2 CALLDATALOAD ADD ADD CALLDATALOAD PUSH1 0x3 SHL SHR NOT AND OR DUP7 SSTORE JUMPDEST ADD SWAP4 ADD SWAP2 ADD SWAP1 SWAP2 PUSH2 0x727 JUMP JUMPDEST PUSH1 0x44 SWAP2 POP DUP3 PUSH1 0x24 CALLDATALOAD ADD ADD ADD CALLDATALOAD DUP15 PUSH2 0x9BF JUMP JUMPDEST DUP5 PUSH1 0x0 MSTORE PUSH1 0x20 PUSH1 0x0 KECCAK256 SWAP1 PUSH1 0x0 JUMPDEST PUSH1 0x24 DUP1 CALLDATALOAD DUP6 ADD ADD CALLDATALOAD PUSH1 0x1F NOT AND DUP2 LT PUSH2 0xA77 JUMPI POP PUSH1 0x1 SWAP4 DUP5 SWAP4 PUSH1 0x20 SWAP4 SWAP2 SWAP3 DUP6 SWAP3 PUSH1 0x24 SWAP3 SWAP2 DUP4 CALLDATALOAD DUP4 ADD DUP5 ADD CALLDATALOAD PUSH1 0x1F NOT DUP2 AND LT PUSH2 0xA51 JUMPI JUMPDEST POP POP DUP2 CALLDATALOAD ADD ADD CALLDATALOAD DUP2 SHL ADD DUP7 SSTORE PUSH2 0x9E0 JUMP JUMPDEST PUSH1 0x44 PUSH1 0x0 NOT PUSH1 0xF8 DUP7 DUP7 DUP2 CALLDATALOAD ADD ADD CALLDATALOAD PUSH1 0x3 SHL AND SHR NOT SWAP2 DUP5 DUP7 CALLDATALOAD ADD ADD ADD CALLDATALOAD AND SWAP1 SSTORE DUP16 DUP1 PUSH2 0xA40 JUMP JUMPDEST SWAP1 SWAP2 PUSH1 0x20 PUSH1 0x1 DUP2 SWAP3 PUSH1 0x44 DUP7 DUP9 PUSH1 0x24 CALLDATALOAD ADD ADD ADD CALLDATALOAD DUP2 SSTORE ADD SWAP4 ADD SWAP2 ADD PUSH2 0xA0B JUMP JUMPDEST PUSH1 0x0 DUP6 DUP2 MSTORE PUSH1 0x20 SWAP1 DUP2 SWAP1 KECCAK256 PUSH2 0xAC9 SWAP3 PUSH1 0x24 DUP1 CALLDATALOAD DUP7 ADD ADD CALLDATALOAD PUSH1 0x1F DUP2 ADD PUSH1 0x5 SHR DUP4 ADD SWAP4 GT PUSH2 0x937 JUMPI PUSH1 0x1F ADD PUSH1 0x5 SHR ADD SWAP1 PUSH2 0xFC0 JUMP JUMPDEST DUP11 PUSH2 0x992 JUMP JUMPDEST PUSH1 0x2 DUP4 ADD PUSH1 0x0 MSTORE PUSH1 0x20 PUSH1 0x0 KECCAK256 SWAP1 PUSH1 0x24 CALLDATALOAD PUSH1 0x4 ADD CALLDATALOAD DUP3 ADD JUMPDEST DUP2 DUP4 ADD DUP2 LT PUSH2 0xAF6 JUMPI POP POP PUSH2 0x70E JUMP JUMPDEST DUP1 PUSH2 0xB03 PUSH1 0x1 SWAP3 SLOAD PUSH2 0xF86 JUMP JUMPDEST DUP1 PUSH2 0xB10 JUMPI JUMPDEST POP ADD PUSH2 0xAE6 JUMP JUMPDEST PUSH1 0x1F DUP2 GT DUP4 EQ PUSH2 0xB26 JUMPI POP PUSH1 0x0 DUP2 SSTORE JUMPDEST DUP10 PUSH2 0xB09 JUMP JUMPDEST PUSH1 0x0 SWAP1 DUP3 DUP3 MSTORE PUSH2 0xB44 PUSH1 0x1F PUSH1 0x20 DUP5 KECCAK256 SWAP3 ADD PUSH1 0x5 SHR DUP3 ADD DUP6 DUP4 ADD PUSH2 0xFC0 JUMP JUMPDEST DUP2 DUP4 SSTORE SSTORE PUSH2 0xB20 JUMP JUMPDEST SWAP1 POP DUP4 ADD CALLDATALOAD DUP7 PUSH2 0x6CD JUMP JUMPDEST SWAP1 POP PUSH1 0x1 DUP4 ADD PUSH1 0x0 MSTORE PUSH1 0x20 PUSH1 0x0 KECCAK256 SWAP1 PUSH1 0x0 JUMPDEST PUSH1 0x1F NOT DUP9 AND DUP2 LT PUSH2 0xBAE JUMPI POP DUP7 PUSH1 0x1F NOT DUP2 AND LT PUSH2 0xB94 JUMPI JUMPDEST POP POP PUSH1 0x1 DUP6 DUP2 SHL ADD PUSH1 0x1 DUP4 ADD SSTORE PUSH2 0x6E4 JUMP JUMPDEST DUP5 ADD CALLDATALOAD PUSH1 0x0 NOT PUSH1 0x3 DUP9 SWAP1 SHL PUSH1 0xF8 AND SHR NOT AND SWAP1 SSTORE DUP6 DUP1 PUSH2 0xB82 JUMP JUMPDEST SWAP1 SWAP2 PUSH1 0x20 PUSH1 0x1 DUP2 SWAP3 DUP6 DUP10 ADD CALLDATALOAD DUP2 SSTORE ADD SWAP4 ADD SWAP2 ADD PUSH2 0xB6A JUMP JUMPDEST PUSH2 0xBF5 SWAP1 PUSH1 0x1 DUP5 ADD PUSH1 0x0 MSTORE PUSH1 0x20 PUSH1 0x0 KECCAK256 PUSH1 0x1F DUP9 ADD PUSH1 0x5 SHR DUP2 ADD SWAP2 PUSH1 0x20 DUP10 LT PUSH2 0x937 JUMPI PUSH1 0x1F ADD PUSH1 0x5 SHR ADD SWAP1 PUSH2 0xFC0 JUMP JUMPDEST DUP6 PUSH2 0x6B6 JUMP JUMPDEST PUSH1 0xFF NOT AND PUSH1 0x1 OR SWAP1 SSTORE PUSH1 0x2 SLOAD PUSH1 0x1 PUSH1 0x40 SHL DUP2 LT ISZERO PUSH2 0x4B2 JUMPI DUP1 PUSH1 0x1 PUSH2 0xC23 SWAP3 ADD PUSH1 0x2 SSTORE PUSH2 0xF0C JUMP JUMPDEST DUP2 SLOAD PUSH1 0x1 PUSH1 0x1 PUSH1 0xA0 SHL SUB PUSH1 0x3 SWAP3 SWAP1 SWAP3 SHL SWAP2 DUP3 SHL NOT AND CALLER SWAP1 SWAP2 SHL OR SWAP1 SSTORE TIMESTAMP PUSH1 0x6 DUP4 ADD SSTORE DUP6 DUP1 PUSH2 0x680 JUMP JUMPDEST CALLVALUE PUSH2 0x270 JUMPI PUSH1 0x20 CALLDATASIZE PUSH1 0x3 NOT ADD SLT PUSH2 0x270 JUMPI PUSH2 0xC65 PUSH2 0xDC3 JUMP JUMPDEST PUSH1 0x0 SLOAD PUSH1 0x1 PUSH1 0x1 PUSH1 0xA0 SHL SUB SWAP2 SWAP1 DUP3 AND CALLER SUB PUSH2 0xCE2 JUMPI AND DUP1 ISZERO PUSH2 0xC9E JUMPI PUSH12 0xFFFFFFFFFFFFFFFFFFFFFFFF PUSH1 0xA0 SHL PUSH1 0x1 SLOAD AND OR PUSH1 0x1 SSTORE PUSH1 0x0 DUP1 RETURN JUMPDEST PUSH1 0x64 PUSH1 0x40 MLOAD PUSH3 0x461BCD PUSH1 0xE5 SHL DUP2 MSTORE PUSH1 0x20 PUSH1 0x4 DUP3 ADD MSTORE PUSH1 0x20 PUSH1 0x24 DUP3 ADD MSTORE PUSH32 0x4361706162696C69747952656769737472793A207A65726F2061646472657373 PUSH1 0x44 DUP3 ADD MSTORE REVERT JUMPDEST PUSH1 0x40 MLOAD PUSH3 0x461BCD PUSH1 0xE5 SHL DUP2 MSTORE PUSH1 0x20 PUSH1 0x4 DUP3 ADD MSTORE PUSH1 0x1D PUSH1 0x24 DUP3 ADD MSTORE PUSH32 0x4361706162696C69747952656769737472793A206E6F74206F776E6572000000 PUSH1 0x44 DUP3 ADD MSTORE PUSH1 0x64 SWAP1 REVERT JUMPDEST CALLVALUE PUSH2 0x270 JUMPI PUSH1 0x20 CALLDATASIZE PUSH1 0x3 NOT ADD SLT PUSH2 0x270 JUMPI PUSH1 0x4 CALLDATALOAD PUSH1 0x2 SLOAD DUP2 LT ISZERO PUSH2 0x270 JUMPI PUSH2 0xD50 PUSH1 0x20 SWAP2 PUSH2 0xF0C JUMP JUMPDEST SWAP1 SLOAD PUSH1 0x40 MLOAD PUSH1 0x3 SWAP3 SWAP1 SWAP3 SHL SHR PUSH1 0x1 PUSH1 0x1 PUSH1 0xA0 SHL SUB AND DUP2 MSTORE RETURN JUMPDEST CALLVALUE PUSH2 0x270 JUMPI PUSH1 0x20 CALLDATASIZE PUSH1 0x3 NOT ADD SLT PUSH2 0x270 JUMPI PUSH2 0xD82 PUSH2 0xDC3 JUMP JUMPDEST PUSH2 0xD8A PUSH2 0x1076 JUMP JUMPDEST POP PUSH1 0x1 DUP1 PUSH1 0xA0 SHL SUB AND PUSH1 0x0 MSTORE PUSH1 0x3 PUSH1 0x20 MSTORE PUSH2 0xDBF PUSH2 0xDAB PUSH1 0x40 PUSH1 0x0 KECCAK256 PUSH2 0x1188 JUMP JUMPDEST PUSH1 0x40 MLOAD SWAP2 DUP3 SWAP2 PUSH1 0x20 DUP4 MSTORE PUSH1 0x20 DUP4 ADD SWAP1 PUSH2 0xE19 JUMP JUMPDEST SUB SWAP1 RETURN JUMPDEST PUSH1 0x4 CALLDATALOAD SWAP1 PUSH1 0x1 PUSH1 0x1 PUSH1 0xA0 SHL SUB DUP3 AND DUP3 SUB PUSH2 0x270 JUMPI JUMP JUMPDEST SWAP2 SWAP1 DUP3 MLOAD SWAP3 DUP4 DUP3 MSTORE PUSH1 0x0 JUMPDEST DUP5 DUP2 LT PUSH2 0xE05 JUMPI POP POP DUP3 PUSH1 0x0 PUSH1 0x20 DUP1 SWAP5 SWAP6 DUP5 ADD ADD MSTORE PUSH1 0x1F DUP1 NOT SWAP2 ADD AND ADD ADD SWAP1 JUMP JUMPDEST PUSH1 0x20 DUP2 DUP4 ADD DUP2 ADD MLOAD DUP5 DUP4 ADD DUP3 ADD MSTORE ADD PUSH2 0xDE4 JUMP JUMPDEST SWAP1 PUSH1 0x1 DUP1 PUSH1 0xA0 SHL SUB DUP3 MLOAD AND DUP2 MSTORE PUSH1 0x20 PUSH2 0xE3F DUP2 DUP5 ADD MLOAD PUSH2 0x180 DUP1 DUP5 DUP7 ADD MSTORE DUP5 ADD SWAP1 PUSH2 0xDD9 JUMP JUMPDEST PUSH1 0x40 DUP5 ADD MLOAD SWAP1 DUP4 DUP2 SUB PUSH1 0x40 DUP6 ADD MSTORE DUP2 MLOAD DUP1 DUP3 MSTORE DUP4 DUP3 ADD SWAP2 DUP5 DUP1 DUP4 PUSH1 0x5 SHL DUP4 ADD ADD SWAP5 ADD SWAP3 PUSH1 0x0 SWAP2 JUMPDEST DUP4 DUP4 LT PUSH2 0xEE0 JUMPI POP POP POP POP POP PUSH2 0x160 SWAP2 PUSH1 0xE0 PUSH2 0xE98 PUSH1 0x80 SWAP4 PUSH1 0x60 DUP9 ADD MLOAD PUSH1 0x60 DUP9 ADD MSTORE DUP5 DUP9 ADD MLOAD DUP8 DUP3 SUB DUP7 DUP10 ADD MSTORE PUSH2 0xDD9 JUMP JUMPDEST SWAP6 PUSH1 0xA0 DUP2 ADD MLOAD ISZERO ISZERO PUSH1 0xA0 DUP8 ADD MSTORE PUSH1 0xC0 DUP2 ADD MLOAD PUSH1 0xC0 DUP8 ADD MSTORE ADD MLOAD SWAP1 DUP2 MLOAD PUSH1 0xE0 DUP7 ADD MSTORE DUP2 ADD MLOAD PUSH2 0x100 DUP6 ADD MSTORE PUSH1 0x40 DUP2 ADD MLOAD PUSH2 0x120 DUP6 ADD MSTORE PUSH1 0x60 DUP2 ADD MLOAD PUSH2 0x140 DUP6 ADD MSTORE ADD MLOAD SWAP2 ADD MSTORE SWAP1 JUMP JUMPDEST SWAP1 SWAP2 SWAP3 SWAP4 SWAP5 DUP7 DUP1 PUSH2 0xEFD PUSH1 0x1 SWAP4 PUSH1 0x1F NOT DUP7 DUP3 SUB ADD DUP8 MSTORE DUP10 MLOAD PUSH2 0xDD9 JUMP JUMPDEST SWAP8 ADD SWAP4 ADD SWAP4 ADD SWAP2 SWAP4 SWAP3 SWAP1 PUSH2 0xE66 JUMP JUMPDEST PUSH1 0x2 SLOAD DUP2 LT ISZERO PUSH2 0xF43 JUMPI PUSH1 0x2 PUSH1 0x0 MSTORE PUSH32 0x405787FA12A823E0F2B7631CC41B3BA8828B3321CA811111FA75CD3AA3BB5ACE ADD SWAP1 PUSH1 0x0 SWAP1 JUMP JUMPDEST PUSH4 0x4E487B71 PUSH1 0xE0 SHL PUSH1 0x0 MSTORE PUSH1 0x32 PUSH1 0x4 MSTORE PUSH1 0x24 PUSH1 0x0 REVERT JUMPDEST SWAP2 DUP2 PUSH1 0x1F DUP5 ADD SLT ISZERO PUSH2 0x270 JUMPI DUP3 CALLDATALOAD SWAP2 PUSH1 0x1 PUSH1 0x1 PUSH1 0x40 SHL SUB DUP4 GT PUSH2 0x270 JUMPI PUSH1 0x20 DUP4 DUP2 DUP7 ADD SWAP6 ADD ADD GT PUSH2 0x270 JUMPI JUMP JUMPDEST SWAP1 PUSH1 0x1 DUP3 DUP2 SHR SWAP3 AND DUP1 ISZERO PUSH2 0xFB6 JUMPI JUMPDEST PUSH1 0x20 DUP4 LT EQ PUSH2 0xFA0 JUMPI JUMP JUMPDEST PUSH4 0x4E487B71 PUSH1 0xE0 SHL PUSH1 0x0 MSTORE PUSH1 0x22 PUSH1 0x4 MSTORE PUSH1 0x24 PUSH1 0x0 REVERT JUMPDEST SWAP2 PUSH1 0x7F AND SWAP2 PUSH2 0xF95 JUMP JUMPDEST DUP2 DUP2 LT PUSH2 0xFCB JUMPI POP POP JUMP JUMPDEST PUSH1 0x0 DUP2 SSTORE PUSH1 0x1 ADD PUSH2 0xFC0 JUMP JUMPDEST SWAP1 DUP1 PUSH1 0x20 SWAP4 SWAP3 DUP2 DUP5 MSTORE DUP5 DUP5 ADD CALLDATACOPY PUSH1 0x0 DUP3 DUP3 ADD DUP5 ADD MSTORE PUSH1 0x1F ADD PUSH1 0x1F NOT AND ADD ADD SWAP1 JUMP JUMPDEST PUSH2 0x100 DUP2 ADD SWAP1 DUP2 LT PUSH1 0x1 PUSH1 0x1 PUSH1 0x40 SHL SUB DUP3 GT OR PUSH2 0x4B2 JUMPI PUSH1 0x40 MSTORE JUMP JUMPDEST PUSH1 0xA0 DUP2 ADD SWAP1 DUP2 LT PUSH1 0x1 PUSH1 0x1 PUSH1 0x40 SHL SUB DUP3 GT OR PUSH2 0x4B2 JUMPI PUSH1 0x40 MSTORE JUMP JUMPDEST SWAP1 PUSH1 0x1F DUP1 NOT SWAP2 ADD AND DUP2 ADD SWAP1 DUP2 LT PUSH1 0x1 PUSH1 0x1 PUSH1 0x40 SHL SUB DUP3 GT OR PUSH2 0x4B2 JUMPI PUSH1 0x40 MSTORE JUMP JUMPDEST PUSH1 0x0 NOT DUP2 EQ PUSH2 0x185 JUMPI PUSH1 0x1 ADD SWAP1 JUMP JUMPDEST PUSH1 0x1 PUSH1 0x1 PUSH1 0x40 SHL SUB DUP2 GT PUSH2 0x4B2 JUMPI PUSH1 0x5 SHL PUSH1 0x20 ADD SWAP1 JUMP JUMPDEST PUSH1 0x40 MLOAD SWAP1 PUSH2 0x1083 DUP3 PUSH2 0xFF8 JUMP JUMPDEST DUP2 PUSH1 0xE0 PUSH1 0x0 SWAP2 DUP3 DUP2 MSTORE PUSH1 0x60 PUSH1 0x20 DUP3 ADD MSTORE PUSH1 0x60 PUSH1 0x40 DUP3 ADD MSTORE DUP3 PUSH1 0x60 DUP3 ADD MSTORE PUSH1 0x60 PUSH1 0x80 DUP3 ADD MSTORE DUP3 PUSH1 0xA0 DUP3 ADD MSTORE DUP3 PUSH1 0xC0 DUP3 ADD MSTORE PUSH1 0x40 MLOAD SWAP3 PUSH2 0x10C0 DUP5 PUSH2 0x1014 JUMP JUMPDEST DUP1 DUP5 MSTORE DUP1 PUSH1 0x20 DUP6 ADD MSTORE DUP1 PUSH1 0x40 DUP6 ADD MSTORE DUP1 PUSH1 0x60 DUP6 ADD MSTORE PUSH1 0x80 DUP5 ADD MSTORE ADD MSTORE JUMP JUMPDEST DUP1 MLOAD DUP3 LT ISZERO PUSH2 0xF43 JUMPI PUSH1 0x20 SWAP2 PUSH1 0x5 SHL ADD ADD SWAP1 JUMP JUMPDEST SWAP1 PUSH1 0x0 SWAP3 SWAP2 DUP1 SLOAD SWAP2 PUSH2 0x1103 DUP4 PUSH2 0xF86 JUMP JUMPDEST SWAP2 DUP3 DUP3 MSTORE PUSH1 0x1 SWAP4 DUP5 DUP2 AND SWAP1 DUP2 PUSH1 0x0 EQ PUSH2 0x1165 JUMPI POP PUSH1 0x1 EQ PUSH2 0x1125 JUMPI JUMPDEST POP POP POP POP JUMP JUMPDEST SWAP1 SWAP2 SWAP4 SWAP5 POP PUSH1 0x0 MSTORE PUSH1 0x20 SWAP3 DUP4 PUSH1 0x0 KECCAK256 SWAP3 DUP5 PUSH1 0x0 SWAP5 JUMPDEST DUP4 DUP7 LT PUSH2 0x1151 JUMPI POP POP POP POP ADD ADD SWAP1 CODESIZE DUP1 DUP1 DUP1 PUSH2 0x111F JUMP JUMPDEST DUP1 SLOAD DUP6 DUP8 ADD DUP4 ADD MSTORE SWAP5 ADD SWAP4 DUP6 SWAP1 DUP3 ADD PUSH2 0x113A JUMP JUMPDEST SWAP3 SWAP5 POP POP POP PUSH1 0x20 SWAP4 SWAP5 POP PUSH1 0xFF NOT AND DUP4 DUP4 ADD MSTORE ISZERO ISZERO PUSH1 0x5 SHL ADD ADD SWAP1 CODESIZE DUP1 DUP1 DUP1 PUSH2 0x111F JUMP JUMPDEST SWAP1 PUSH1 0x40 DUP1 MLOAD PUSH2 0x1196 DUP2 PUSH2 0xFF8 JUMP JUMPDEST DUP1 SWAP4 PUSH1 0x1 DUP1 PUSH1 0xA0 SHL SUB DUP2 SLOAD AND DUP3 MSTORE DUP3 MLOAD SWAP3 PUSH1 0x1 PUSH2 0x11C0 DUP6 PUSH2 0x11B9 DUP2 DUP5 DUP8 ADD PUSH2 0x10F2 JUMP JUMPDEST SUB DUP7 PUSH2 0x102F JUMP JUMPDEST PUSH1 0x20 SWAP5 DUP6 DUP6 ADD MSTORE PUSH1 0x2 DUP4 ADD SWAP1 DUP2 SLOAD PUSH2 0x11D7 DUP2 PUSH2 0x105F JUMP JUMPDEST SWAP3 PUSH2 0x11E4 DUP6 MLOAD SWAP5 DUP6 PUSH2 0x102F JUMP JUMPDEST DUP2 DUP5 MSTORE PUSH1 0x0 SWAP1 DUP2 MSTORE DUP8 DUP2 KECCAK256 DUP9 DUP1 DUP7 ADD JUMPDEST DUP5 DUP5 LT PUSH2 0x1289 JUMPI POP POP POP POP POP POP SWAP2 DUP2 DUP5 SWAP4 PUSH1 0xB SWAP4 PUSH1 0xE0 SWAP7 ADD MSTORE PUSH1 0x3 DUP3 ADD SLOAD PUSH1 0x60 DUP6 ADD MSTORE DUP1 MLOAD PUSH2 0x1231 DUP2 PUSH2 0x122A DUP2 PUSH1 0x4 DUP8 ADD PUSH2 0x10F2 JUMP JUMPDEST SUB DUP3 PUSH2 0x102F JUMP JUMPDEST PUSH1 0x80 DUP6 ADD MSTORE PUSH1 0xFF PUSH1 0x5 DUP4 ADD SLOAD AND ISZERO ISZERO PUSH1 0xA0 DUP6 ADD MSTORE PUSH1 0x6 DUP3 ADD SLOAD PUSH1 0xC0 DUP6 ADD MSTORE DUP1 MLOAD SWAP6 PUSH2 0x125B DUP8 PUSH2 0x1014 JUMP JUMPDEST PUSH1 0x7 DUP4 ADD SLOAD DUP8 MSTORE PUSH1 0x8 DUP4 ADD SLOAD SWAP1 DUP8 ADD MSTORE PUSH1 0x9 DUP3 ADD SLOAD SWAP1 DUP7 ADD MSTORE PUSH1 0xA DUP2 ADD SLOAD PUSH1 0x60 DUP7 ADD MSTORE ADD SLOAD PUSH1 0x80 DUP5 ADD MSTORE ADD MSTORE JUMP JUMPDEST DUP6 SWAP2 DUP3 SWAP2 DUP10 MLOAD PUSH2 0x129D DUP2 PUSH2 0x122A DUP2 DUP10 PUSH2 0x10F2 JUMP JUMPDEST DUP2 MSTORE ADD SWAP3 ADD SWAP3 ADD SWAP2 SWAP1 DUP10 SWAP1 PUSH2 0x11F4 JUMP JUMPDEST SWAP2 SWAP1 DUP3 ADD DUP1 SWAP3 GT PUSH2 0x185 JUMPI JUMP JUMPDEST SWAP1 PUSH1 0x0 JUMPDEST DUP3 SLOAD DUP2 LT ISZERO PUSH2 0x130D JUMPI DUP3 PUSH1 0x0 MSTORE DUP2 PUSH2 0x12E6 PUSH1 0x20 PUSH2 0x12ED DUP5 DUP3 PUSH1 0x0 KECCAK256 ADD PUSH1 0x40 MLOAD SWAP4 DUP5 DUP1 SWAP3 PUSH2 0x10F2 JUMP JUMPDEST SUB DUP4 PUSH2 0x102F JUMP JUMPDEST DUP2 MLOAD SWAP2 ADD KECCAK256 EQ PUSH2 0x1305 JUMPI PUSH2 0x1300 SWAP1 PUSH2 0x1050 JUMP JUMPDEST PUSH2 0x12BE JUMP JUMPDEST POP POP POP PUSH1 0x1 SWAP1 JUMP JUMPDEST POP POP POP PUSH1 0x0 SWAP1 JUMP INVALID LOG2 PUSH5 0x6970667358 0x22 SLT KECCAK256 0xBA LOG0 0x5D 0xE7 SWAP3 0x21 0xD1 SIGNEXTEND 0x27 PUSH28 0xA811D42A9AFEF41455FF45B3280F30BC44E7AAE5102A64736F6C6343 STOP ADDMOD EQ STOP CALLER "},"methodIdentifiers":{"agentList(uint256)":"2f80c54f","getProfile(address)":"0f53a470","jobEscrow()":"b0d83db8","lookup(string)":"f67187ac","owner()":"8da5cb5b","register(string,string[],uint256,string)":"8414682e","setAvailable(bool)":"e2df20d1","setJobEscrow(address)":"484cddd0","updateReputation(address,bool,uint256)":"ff370a40"}}}}}