{
  "_format": "hh-sol-artifact-1",
  "contractName": "CapabilityRegistry",
  "sourceName": "contracts/CapabilityRegistry.sol",
  "abi": [
    {
      "inputs": [],
      "stateMutability": "nonpayable",
      "type": "constructor"
    },
    {
      "anonymous": false,
      "inputs": [
        {
          "indexed": true,
          "internalType": "address",
          "name": "agent",
          "type": "address"
        },
        {
          "indexed": false,
          "internalType": "string",
          "name": "name",
          "type": "string"
        },
        {
          "indexed": false,
          "internalType": "string[]",
          "name": "capabilities",
          "type": "string[]"
        }
      ],
      "name": "AgentRegistered",
      "type": "event"
    },
    {
      "anonymous": false,
      "inputs": [
        {
          "indexed": true,
          "internalType": "address",
          "name": "agent",
          "type": "address"
        },
        {
          "indexed": false,
          "internalType": "uint256",
          "name": "newScore",
          "type": "uint256"
        },
        {
          "indexed": false,
          "internalType": "bool",
          "name": "success",
          "type": "bool"
        },
        {
          "indexed": false,
          "internalType": "uint256",
          "name": "jobValue",
          "type": "uint256"
        }
      ],
      "name": "ReputationUpdated",
      "type": "event"
    },
    {
      "inputs": [
        {
          "internalType": "uint256",
          "name": "",
          "type": "uint256"
        }
      ],
      "name": "agentList",
      "outputs": [
        {
          "internalType": "address",
          "name": "",
          "type": "address"
        }
      ],
      "stateMutability": "view",
      "type": "function"
    },
    {
      "inputs": [
        {
          "internalType": "address",
          "name": "agent",
          "type": "address"
        }
      ],
      "name": "getProfile",
      "outputs": [
        {
          "components": [
            {
              "internalType": "address",
              "name": "agentAddress",
              "type": "address"
            },
            {
              "internalType": "string",
              "name": "name",
              "type": "string"
            },
            {
              "internalType": "string[]",
              "name": "capabilities",
              "type": "string[]"
            },
            {
              "internalType": "uint256",
              "name": "pricePerJob",
              "type": "uint256"
            },
            {
              "internalType": "string",
              "name": "endpoint",
              "type": "string"
            },
            {
              "internalType": "bool",
              "name": "available",
              "type": "bool"
            },
            {
              "internalType": "uint256",
              "name": "registeredAt",
              "type": "uint256"
            },
            {
              "components": [
                {
                  "internalType": "uint256",
                  "name": "score",
                  "type": "uint256"
                },
                {
                  "internalType": "uint256",
                  "name": "totalJobs",
                  "type": "uint256"
                },
                {
                  "internalType": "uint256",
                  "name": "successfulJobs",
                  "type": "uint256"
                },
                {
                  "internalType": "uint256",
                  "name": "weightedSuccesses",
                  "type": "uint256"
                },
                {
                  "internalType": "uint256",
                  "name": "weightedTotal",
                  "type": "uint256"
                }
              ],
              "internalType": "struct CapabilityRegistry.ReputationRecord",
              "name": "reputation",
              "type": "tuple"
            }
          ],
          "internalType": "struct CapabilityRegistry.AgentProfile",
          "name": "",
          "type": "tuple"
        }
      ],
      "stateMutability": "view",
      "type": "function"
    },
    {
      "inputs": [],
      "name": "jobEscrow",
      "outputs": [
        {
          "internalType": "address",
          "name": "",
          "type": "address"
        }
      ],
      "stateMutability": "view",
      "type": "function"
    },
    {
      "inputs": [
        {
          "internalType": "string",
          "name": "capability",
          "type": "string"
        }
      ],
      "name": "lookup",
      "outputs": [
        {
          "components": [
            {
              "internalType": "address",
              "name": "agentAddress",
              "type": "address"
            },
            {
              "internalType": "string",
              "name": "name",
              "type": "string"
            },
            {
              "internalType": "string[]",
              "name": "capabilities",
              "type": "string[]"
            },
            {
              "internalType": "uint256",
              "name": "pricePerJob",
              "type": "uint256"
            },
            {
              "internalType": "string",
              "name": "endpoint",
              "type": "string"
            },
            {
              "internalType": "bool",
              "name": "available",
              "type": "bool"
            },
            {
              "internalType": "uint256",
              "name": "registeredAt",
              "type": "uint256"
            },
            {
              "components": [
                {
                  "internalType": "uint256",
                  "name": "score",
                  "type": "uint256"
                },
                {
                  "internalType": "uint256",
                  "name": "totalJobs",
                  "type": "uint256"
                },
                {
                  "internalType": "uint256",
                  "name": "successfulJobs",
                  "type": "uint256"
                },
                {
                  "internalType": "uint256",
                  "name": "weightedSuccesses",
                  "type": "uint256"
                },
                {
                  "internalType": "uint256",
                  "name": "weightedTotal",
                  "type": "uint256"
                }
              ],
              "internalType": "struct CapabilityRegistry.ReputationRecord",
              "name": "reputation",
              "type": "tuple"
            }
          ],
          "internalType": "struct CapabilityRegistry.AgentProfile[]",
          "name": "",
          "type": "tuple[]"
        }
      ],
      "stateMutability": "view",
      "type": "function"
    },
    {
      "inputs": [],
      "name": "owner",
      "outputs": [
        {
          "internalType": "address",
          "name": "",
          "type": "address"
        }
      ],
      "stateMutability": "view",
      "type": "function"
    },
    {
      "inputs": [
        {
          "internalType": "string",
          "name": "name",
          "type": "string"
        },
        {
          "internalType": "string[]",
          "name": "capabilities",
          "type": "string[]"
        },
        {
          "internalType": "uint256",
          "name": "pricePerJob",
          "type": "uint256"
        },
        {
          "internalType": "string",
          "name": "endpoint",
          "type": "string"
        }
      ],
      "name": "register",
      "outputs": [],
      "stateMutability": "nonpayable",
      "type": "function"
    },
    {
      "inputs": [
        {
          "internalType": "bool",
          "name": "available",
          "type": "bool"
        }
      ],
      "name": "setAvailable",
      "outputs": [],
      "stateMutability": "nonpayable",
      "type": "function"
    },
    {
      "inputs": [
        {
          "internalType": "address",
          "name": "_jobEscrow",
          "type": "address"
        }
      ],
      "name": "setJobEscrow",
      "outputs": [],
      "stateMutability": "nonpayable",
      "type": "function"
    },
    {
      "inputs": [
        {
          "internalType": "address",
          "name": "agent",
          "type": "address"
        },
        {
          "internalType": "bool",
          "name": "success",
          "type": "bool"
        },
        {
          "internalType": "uint256",
          "name": "jobValue",
          "type": "uint256"
        }
      ],
      "name": "updateReputation",
      "outputs": [],
      "stateMutability": "nonpayable",
      "type": "function"
    }
  ],
  "bytecode": "0x6080806040523461002857600080546001600160a01b0319163317905561134b908161002e8239f35b600080fdfe6080604052600436101561001257600080fd5b60003560e01c80630f53a47014610d695780632f80c54f14610d27578063484cddd014610c4c5780638414682e146105c25780638da5cb5b14610599578063b0d83db814610570578063e2df20d1146104c8578063f67187ac146102755763ff370a401461007f57600080fd5b3461027057606036600319011261027057610098610dc3565b602435908115159182810361027057600154604435926001600160a01b03918216330361021757169283600052600460205260ff60406000205416156101c157836000526003602052604060002092600884016100f58154611050565b9055600b8401926101078285546112ad565b80945561019b575b600a8401549160648302928084046064149015171561018557831561016f577f01e925c088f0b9a5559a984986855e6a6ac29f0dede815ca77a0fb6aecf3b7a79460609460079404938491015560405192835260208301526040820152a2005b634e487b7160e01b600052601260045260246000fd5b634e487b7160e01b600052601160045260246000fd5b600984016101a98154611050565b9055600a84016101ba8282546112ad565b905561010f565b60405162461bcd60e51b815260206004820152602860248201527f4361706162696c69747952656769737472793a206167656e74206e6f7420726560448201526719da5cdd195c995960c21b6064820152608490fd5b60405162461bcd60e51b815260206004820152602b60248201527f4361706162696c69747952656769737472793a2063616c6c6572206973206e6f60448201526a74204a6f62457363726f7760a81b6064820152608490fd5b600080fd5b3461027057602080600319360112610270576001600160401b03600435818111610270576102a7903690600401610f59565b9182116104b257604051601f19926102c6601f8201851686018361102f565b80825284820192368282011161027057816000928792863783010152519020906000916000916002908154935b84811061043b575061031d6103078661105f565b95610315604051978861102f565b80875261105f565b018560005b8281106104255750505060009060005b84811061039757604080518881528751818a01819052600092600582901b83018101918a8c01918c9085015b82871061036b5785850386f35b909192938280610387600193603f198a82030186528851610e19565b960192019601959291909261035e565b6103a081610f0c565b9054600391821b1c6001600160a01b0316600090815290885260409020600581015460ff1680610413575b6103df575b506103da90611050565b610332565b929061040c826103fb6103f56103da9592611050565b96611188565b610405828b6110de565b52886110de565b50906103d0565b50610420858483016112ba565b6103cb565b61042d611076565b828289010152018690610322565b61044481610f0c565b9054600391821b1c6001600160a01b0316600090815290885260409020600581015460ff1690859085908361049f575b50505061048a575b61048590611050565b6102f3565b9461049761048591611050565b95905061047c565b6104aa9350016112ba565b84848a610474565b634e487b7160e01b600052604160045260246000fd5b34610270576020366003190112610270576004358015158091036102705733600052600460205260ff60406000205416156105205733600052600360205260056040600020019060ff80198354169116179055600080f35b60405162461bcd60e51b815260206004820152602260248201527f4361706162696c69747952656769737472793a206e6f74207265676973746572604482015261195960f21b6064820152608490fd5b34610270576000366003190112610270576001546040516001600160a01b039091168152602090f35b34610270576000366003190112610270576000546040516001600160a01b039091168152602090f35b34610270576080366003190112610270576004356001600160401b038111610270576105f2903690600401610f59565b906001600160401b036024351161027057366023602435011215610270576001600160401b0360243560040135116102705736602480356004013560051b8135010111610270576064356001600160401b03811161027057610658903690600401610f59565b91909133600052600360205260406000209060046020526040600020805460ff811615610bfb575b505081546001600160a01b031916331782556001600160401b0385116104b2576106ad6001830154610f86565b601f8111610bc6575b50846000601f8211600114610b5857600091610b4d575b508560011b906000198760031b1c19161760018301555b600160401b60243560040135116104b2576002820180546004602435013591829055908111610acf575b5060248035019384600284016000526020600020906000905b6024356004013582106109415750505060443560038401556001600160401b0382116104b25761075a6004840154610f86565b601f8111610901575b50600090601f831160011461088a5791806107bb95949260059460009261087f575b50508160011b916000199060031b1c19161760048201555b01600160ff1982541617905560405193604085526040850191610fd7565b918083036020820152602435600401358352602083019260206024356004013560051b820101929060005b60243560040135811061081c57337fcf566b9feaf421c1c6768eee5bcd85d968c5ec9b78a6e1db58d90005717b61bc85870386a2005b909193601f198382030186528435604219602435360301811215610270576024350190604460248301359201916001600160401b038111610270578036038313610270576108706020928392600195610fd7565b960196019101949190946107e6565b013590508880610785565b6004840160005260206000209160005b601f19851681106108e95750926107bb95949260019260059583601f198116106108cf575b505050811b01600482015561079d565b0135600019600384901b60f8161c191690558880806108bf565b9092602060018192868601358155019401910161089a565b61093190600485016000526020600020601f850160051c81019160208610610937575b601f0160051c0190610fc0565b86610763565b9091508190610924565b8035602435360360421901811215610270576001600160401b036024828135010135116102705760248181350101353603604482602435010113610270576109898454610f86565b601f8111610a96575b506000601f6024838135010135116001146109fe57600192839260209260009060248381350101356109ec575b506024828135010135851b91602460001991813501013560031b1c19161786555b01930191019091610727565b6044915082602435010101358e6109bf565b8460005260206000209060005b6024803585010135601f19168110610a7757506001938493602093919285926024929183358301840135601f19811610610a51575b50508135010135811b0186556109e0565b604460001960f88686813501013560031b161c1991848635010101351690558f80610a40565b9091602060018192604486886024350101013581550193019101610a0b565b6000858152602090819020610ac9926024803586010135601f810160051c8301931161093757601f0160051c0190610fc0565b8a610992565b600283016000526020600020906024356004013582015b8183018110610af657505061070e565b80610b0360019254610f86565b80610b10575b5001610ae6565b601f81118314610b265750600081555b89610b09565b600090828252610b44601f60208420920160051c8201858301610fc0565b81835555610b20565b9050830135866106cd565b90506001830160005260206000209060005b601f1988168110610bae575086601f19811610610b94575b5050600185811b0160018301556106e4565b840135600019600388901b60f8161c191690558580610b82565b90916020600181928589013581550193019101610b6a565b610bf590600184016000526020600020601f880160051c8101916020891061093757601f0160051c0190610fc0565b856106b6565b60ff19166001179055600254600160401b8110156104b257806001610c239201600255610f0c565b81546001600160a01b0360039290921b91821b19163390911b1790554260068301558580610680565b3461027057602036600319011261027057610c65610dc3565b6000546001600160a01b03919082163303610ce257168015610c9e576bffffffffffffffffffffffff60a01b6001541617600155600080f35b606460405162461bcd60e51b815260206004820152602060248201527f4361706162696c69747952656769737472793a207a65726f20616464726573736044820152fd5b60405162461bcd60e51b815260206004820152601d60248201527f4361706162696c69747952656769737472793a206e6f74206f776e65720000006044820152606490fd5b346102705760203660031901126102705760043560025481101561027057610d50602091610f0c565b905460405160039290921b1c6001600160a01b03168152f35b3461027057602036600319011261027057610d82610dc3565b610d8a611076565b5060018060a01b03166000526003602052610dbf610dab6040600020611188565b604051918291602083526020830190610e19565b0390f35b600435906001600160a01b038216820361027057565b919082519283825260005b848110610e05575050826000602080949584010152601f8019910116010190565b602081830181015184830182015201610de4565b9060018060a01b0382511681526020610e3f818401516101808084860152840190610dd9565b604084015190838103604085015281518082528382019184808360051b8301019401926000915b838310610ee05750505050506101609160e0610e98608093606088015160608801528488015187820386890152610dd9565b9560a0810151151560a087015260c081015160c0870152015190815160e086015281015161010085015260408101516101208501526060810151610140850152015191015290565b90919293948680610efd600193601f198682030187528951610dd9565b97019301930191939290610e66565b600254811015610f435760026000527f405787fa12a823e0f2b7631cc41b3ba8828b3321ca811111fa75cd3aa3bb5ace0190600090565b634e487b7160e01b600052603260045260246000fd5b9181601f84011215610270578235916001600160401b038311610270576020838186019501011161027057565b90600182811c92168015610fb6575b6020831014610fa057565b634e487b7160e01b600052602260045260246000fd5b91607f1691610f95565b818110610fcb575050565b60008155600101610fc0565b908060209392818452848401376000828201840152601f01601f1916010190565b61010081019081106001600160401b038211176104b257604052565b60a081019081106001600160401b038211176104b257604052565b90601f801991011681019081106001600160401b038211176104b257604052565b60001981146101855760010190565b6001600160401b0381116104b25760051b60200190565b6040519061108382610ff8565b8160e06000918281526060602082015260606040820152826060820152606060808201528260a08201528260c0820152604051926110c084611014565b80845280602085015280604085015280606085015260808401520152565b8051821015610f435760209160051b010190565b906000929180549161110383610f86565b9182825260019384811690816000146111655750600114611125575b50505050565b90919394506000526020928360002092846000945b83861061115157505050500101903880808061111f565b80548587018301529401938590820161113a565b9294505050602093945060ff191683830152151560051b0101903880808061111f565b906040805161119681610ff8565b809360018060a01b03815416825282519260016111c0856111b9818487016110f2565b038661102f565b60209485850152600283019081546111d78161105f565b926111e48551948561102f565b8184526000908152878120888086015b8484106112895750505050505091818493600b9360e09601526003820154606085015280516112318161122a81600487016110f2565b038261102f565b608085015260ff600583015416151560a0850152600682015460c085015280519561125b87611014565b60078301548752600883015490870152600982015490860152600a8101546060860152015460808401520152565b85918291895161129d8161122a81896110f2565b81520192019201919089906111f4565b9190820180921161018557565b9060005b825481101561130d5782600052816112e660206112ed848260002001604051938480926110f2565b038361102f565b8151910120146113055761130090611050565b6112be565b505050600190565b50505060009056fea2646970667358221220baa05de79221d10b277ba811d42a9afef41455ff45b3280f30bc44e7aae5102a64736f6c63430008140033",
  "linkReferences": {},
  "deployedLinkReferences": {}
}